{
  "contractName": "DecentralizeAutoFund",
  "abi": [
    {
      "inputs": [
        {
          "internalType": "uint256",
          "name": "_minMoneySignUp",
          "type": "uint256"
        }
      ],
      "stateMutability": "nonpayable",
      "type": "constructor"
    },
    {
      "anonymous": false,
      "inputs": [
        {
          "indexed": true,
          "internalType": "uint256",
          "name": "hostId",
          "type": "uint256"
        },
        {
          "indexed": true,
          "internalType": "address",
          "name": "host",
          "type": "address"
        },
        {
          "indexed": false,
          "internalType": "uint256",
          "name": "amount",
          "type": "uint256"
        },
        {
          "indexed": false,
          "internalType": "uint256",
          "name": "endTime",
          "type": "uint256"
        }
      ],
      "name": "FundHosted",
      "type": "event"
    },
    {
      "anonymous": false,
      "inputs": [
        {
          "indexed": true,
          "internalType": "address",
          "name": "member",
          "type": "address"
        },
        {
          "indexed": false,
          "internalType": "uint256",
          "name": "amount",
          "type": "uint256"
        }
      ],
      "name": "FundWithdrawn",
      "type": "event"
    },
    {
      "anonymous": false,
      "inputs": [
        {
          "indexed": true,
          "internalType": "uint256",
          "name": "hostId",
          "type": "uint256"
        },
        {
          "indexed": true,
          "internalType": "address",
          "name": "host",
          "type": "address"
        },
        {
          "indexed": false,
          "internalType": "uint256",
          "name": "amount",
          "type": "uint256"
        }
      ],
      "name": "InvestmentMade",
      "type": "event"
    },
    {
      "anonymous": false,
      "inputs": [
        {
          "indexed": true,
          "internalType": "address",
          "name": "member",
          "type": "address"
        },
        {
          "indexed": false,
          "internalType": "uint256",
          "name": "id",
          "type": "uint256"
        },
        {
          "indexed": false,
          "internalType": "uint256",
          "name": "age",
          "type": "uint256"
        },
        {
          "indexed": false,
          "internalType": "string",
          "name": "name",
          "type": "string"
        }
      ],
      "name": "MemberSignedUp",
      "type": "event"
    },
    {
      "anonymous": false,
      "inputs": [
        {
          "indexed": true,
          "internalType": "string",
          "name": "proportionType",
          "type": "string"
        },
        {
          "indexed": false,
          "internalType": "uint256",
          "name": "newValue",
          "type": "uint256"
        }
      ],
      "name": "ProportionChanged",
      "type": "event"
    },
    {
      "anonymous": false,
      "inputs": [
        {
          "indexed": true,
          "internalType": "address",
          "name": "member",
          "type": "address"
        },
        {
          "indexed": true,
          "internalType": "uint256",
          "name": "hostId",
          "type": "uint256"
        },
        {
          "indexed": false,
          "internalType": "uint256",
          "name": "voteAmount",
          "type": "uint256"
        }
      ],
      "name": "Voted",
      "type": "event"
    },
    {
      "inputs": [],
      "name": "firstId",
      "outputs": [
        {
          "internalType": "uint256",
          "name": "",
          "type": "uint256"
        }
      ],
      "stateMutability": "view",
      "type": "function",
      "constant": true
    },
    {
      "inputs": [
        {
          "internalType": "uint256",
          "name": "",
          "type": "uint256"
        }
      ],
      "name": "hostFunds",
      "outputs": [
        {
          "internalType": "uint256",
          "name": "id",
          "type": "uint256"
        },
        {
          "internalType": "address",
          "name": "host",
          "type": "address"
        },
        {
          "internalType": "uint256",
          "name": "amount",
          "type": "uint256"
        },
        {
          "internalType": "uint256",
          "name": "endTime",
          "type": "uint256"
        },
        {
          "internalType": "uint256",
          "name": "totalVotes",
          "type": "uint256"
        },
        {
          "internalType": "bool",
          "name": "isCompleted",
          "type": "bool"
        }
      ],
      "stateMutability": "view",
      "type": "function",
      "constant": true
    },
    {
      "inputs": [],
      "name": "hostIdCounter",
      "outputs": [
        {
          "internalType": "uint256",
          "name": "",
          "type": "uint256"
        }
      ],
      "stateMutability": "view",
      "type": "function",
      "constant": true
    },
    {
      "inputs": [],
      "name": "maxHostCount",
      "outputs": [
        {
          "internalType": "uint256",
          "name": "",
          "type": "uint256"
        }
      ],
      "stateMutability": "view",
      "type": "function",
      "constant": true
    },
    {
      "inputs": [
        {
          "internalType": "address",
          "name": "",
          "type": "address"
        }
      ],
      "name": "members",
      "outputs": [
        {
          "internalType": "uint256",
          "name": "id",
          "type": "uint256"
        },
        {
          "internalType": "uint256",
          "name": "age",
          "type": "uint256"
        },
        {
          "internalType": "string",
          "name": "name",
          "type": "string"
        },
        {
          "internalType": "bool",
          "name": "isActive",
          "type": "bool"
        }
      ],
      "stateMutability": "view",
      "type": "function",
      "constant": true
    },
    {
      "inputs": [],
      "name": "minMoneySignUp",
      "outputs": [
        {
          "internalType": "uint256",
          "name": "",
          "type": "uint256"
        }
      ],
      "stateMutability": "view",
      "type": "function",
      "constant": true
    },
    {
      "inputs": [
        {
          "internalType": "uint256",
          "name": "_age",
          "type": "uint256"
        },
        {
          "internalType": "string",
          "name": "_name",
          "type": "string"
        }
      ],
      "name": "signUp",
      "outputs": [],
      "stateMutability": "payable",
      "type": "function",
      "payable": true
    },
    {
      "inputs": [
        {
          "internalType": "address",
          "name": "_addr",
          "type": "address"
        }
      ],
      "name": "getListMember",
      "outputs": [
        {
          "internalType": "uint256",
          "name": "",
          "type": "uint256"
        },
        {
          "internalType": "uint256",
          "name": "",
          "type": "uint256"
        },
        {
          "internalType": "string",
          "name": "",
          "type": "string"
        }
      ],
      "stateMutability": "view",
      "type": "function",
      "constant": true
    },
    {
      "inputs": [
        {
          "internalType": "uint256",
          "name": "_amount",
          "type": "uint256"
        },
        {
          "internalType": "uint256",
          "name": "_duration",
          "type": "uint256"
        }
      ],
      "name": "hostFund",
      "outputs": [],
      "stateMutability": "nonpayable",
      "type": "function"
    },
    {
      "inputs": [
        {
          "internalType": "uint256",
          "name": "_hostId",
          "type": "uint256"
        }
      ],
      "name": "voteFund",
      "outputs": [],
      "stateMutability": "payable",
      "type": "function",
      "payable": true
    },
    {
      "inputs": [
        {
          "internalType": "uint256",
          "name": "_hostId",
          "type": "uint256"
        }
      ],
      "name": "makeInvestment",
      "outputs": [],
      "stateMutability": "nonpayable",
      "type": "function"
    },
    {
      "inputs": [],
      "name": "withdrawFund",
      "outputs": [],
      "stateMutability": "nonpayable",
      "type": "function"
    },
    {
      "inputs": [
        {
          "internalType": "uint256",
          "name": "_newValue",
          "type": "uint256"
        }
      ],
      "name": "changeProportionMemberSignUp",
      "outputs": [],
      "stateMutability": "nonpayable",
      "type": "function"
    },
    {
      "inputs": [
        {
          "internalType": "uint256",
          "name": "_newValue",
          "type": "uint256"
        }
      ],
      "name": "changeProportionAcceptFund",
      "outputs": [],
      "stateMutability": "nonpayable",
      "type": "function"
    },
    {
      "inputs": [],
      "name": "getContractBalance",
      "outputs": [
        {
          "internalType": "uint256",
          "name": "",
          "type": "uint256"
        }
      ],
      "stateMutability": "view",
      "type": "function",
      "constant": true
    },
    {
      "inputs": [
        {
          "internalType": "address",
          "name": "member",
          "type": "address"
        }
      ],
      "name": "isMemberActive",
      "outputs": [
        {
          "internalType": "bool",
          "name": "",
          "type": "bool"
        }
      ],
      "stateMutability": "view",
      "type": "function",
      "constant": true
    }
  ],
  "bytecode": "0x6080604052600360015534801561001557600080fd5b5060405161125e38038061125e83398101604081905261003491610046565b6000908155600281905560035561005f565b60006020828403121561005857600080fd5b5051919050565b6111f08061006e6000396000f3fe6080604052600436106100f35760003560e01c80637d00e03d1161008a578063f0c9fb6811610059578063f0c9fb68146102df578063f56d8af6146102f5578063fa44f1fa14610315578063feea8ea81461034457600080fd5b80637d00e03d146101f6578063ba3eefc514610216578063bfe8645a14610236578063e07fa3c1146102ca57600080fd5b806330cb8d5c116100c657806330cb8d5c1461017d578063401576a21461019d57806367317647146101b35780636f9fb98a146101e357600080fd5b806308ae4b0c146100f857806316ffffad146101315780632bf4ec85146101555780632cee54721461016a575b600080fd5b34801561010457600080fd5b50610118610113366004610ddd565b61035a565b6040516101289493929190610e53565b60405180910390f35b34801561013d57600080fd5b5061014760015481565b604051908152602001610128565b610168610163366004610e9b565b61040e565b005b610168610178366004610f56565b610592565b34801561018957600080fd5b50610168610198366004610f56565b610748565b3480156101a957600080fd5b5061014760025481565b3480156101bf57600080fd5b506101d36101ce366004610ddd565b6107f9565b6040519015158152602001610128565b3480156101ef57600080fd5b5047610147565b34801561020257600080fd5b50610168610211366004610f56565b61081a565b34801561022257600080fd5b50610168610231366004610f56565b61083c565b34801561024257600080fd5b50610293610251366004610f56565b600560208190526000918252604090912080546001820154600283015460038401546004850154949095015492946001600160a01b0390921693909260ff1686565b604080519687526001600160a01b0390951660208701529385019290925260608401526080830152151560a082015260c001610128565b3480156102d657600080fd5b50610168610a4b565b3480156102eb57600080fd5b5061014760035481565b34801561030157600080fd5b50610168610310366004610f6f565b610b30565b34801561032157600080fd5b50610335610330366004610ddd565b610d14565b60405161012893929190610f91565b34801561035057600080fd5b5061014760005481565b6004602052600090815260409020805460018201546002830180549293919261038290610fb9565b80601f01602080910402602001604051908101604052809291908181526020018280546103ae90610fb9565b80156103fb5780601f106103d0576101008083540402835291602001916103fb565b820191906000526020600020905b8154815290600101906020018083116103de57829003601f168201915b5050506003909301549192505060ff1684565b6000543410156104655760405162461bcd60e51b815260206004820152601f60248201527f496e73756666696369656e742066756e647320666f72207369676e207570210060448201526064015b60405180910390fd5b3360009081526004602052604090206003015460ff16156104bd5760405162461bcd60e51b8152602060048201526012602482015271416c7265616479207369676e65642075702160701b604482015260640161045c565b6040805160808101825260028054825260208083018681528385018681526001606086018190523360009081526004909452959092208451815590519481019490945551919291908201906105129082611042565b50606091909101516003909101805460ff19169115159190911790556002805490600061053e83611118565b909155505033600081815260046020526040908190205490517f3f3d01f76400fe7661b44c3e4a0eac695c58ff054f91dcd0d9de2cd11d997507916105869186908690610f91565b60405180910390a25050565b61059b336107f9565b6105b75760405162461bcd60e51b815260040161045c90611131565b6000818152600560205260409020600381015442106106185760405162461bcd60e51b815260206004820152601860248201527f566f74696e6720706572696f642068617320656e6465642e0000000000000000604482015260640161045c565b600082815260066020908152604080832033845290915290205460ff16156106825760405162461bcd60e51b815260206004820152601760248201527f596f75206861766520616c726561647920766f7465642e000000000000000000604482015260640161045c565b600034116106d25760405162461bcd60e51b815260206004820152601960248201527f4e6f2076616c75652073656e7420666f7220766f74696e672e00000000000000604482015260640161045c565b348160040160008282546106e69190611168565b909155505060008281526006602090815260408083203380855290835292819020805460ff19166001179055513481528492917fea66f58e474bc09f580000e81f31b334d171db387d0c6098ba47bd897741679b910160405180910390a35050565b60648111156107a55760405162461bcd60e51b8152602060048201526024808201527f50657263656e74616765206d757374206265206265747765656e203020616e646044820152630203130360e41b606482015260840161045c565b604051691058d8d95c1d119d5b9960b21b8152600a015b604051908190038120828252907fa9d473da28e6c4d0eaba53098123503d170ae554c6ca13b664b4b55b1094a1ae9060200160405180910390a250565b6001600160a01b031660009081526004602052604090206003015460ff1690565b60008190556040516b04d656d6265725369676e55760a41b8152600c016107bc565b6000818152600560205260409020600381015442101561089e5760405162461bcd60e51b815260206004820152601c60248201527f566f74696e6720706572696f64206e6f7420656e646564207965742e00000000604482015260640161045c565b600581015460ff16156108f35760405162461bcd60e51b815260206004820152601860248201527f496e766573746d656e7420616c7265616479206d6164652e0000000000000000604482015260640161045c565b60048101548061093a5760405162461bcd60e51b81526020600482015260126024820152712737903b37ba32b9903932b1b2b4bb32b21760711b604482015260640161045c565b6064600054603c61094b9190611181565b6109559190611198565b8110156109a45760405162461bcd60e51b815260206004820152601d60248201527f496e73756666696369656e7420766f74657320746f206163636570742e000000604482015260640161045c565b600182015460028301546040516001600160a01b039092169181156108fc0291906000818181858888f193505050501580156109e4573d6000803e3d6000fd5b5060058201805460ff1916600190811790915582015460028301546040516001600160a01b039092169185917f89728d542d77fad9fe42c7d1f032c2b85f64cf938d754183b0e95359fbfac8a191610a3e91815260200190565b60405180910390a3505050565b610a54336107f9565b610a705760405162461bcd60e51b815260040161045c90611131565b4780610ab65760405162461bcd60e51b8152602060048201526015602482015274273790333ab73239903a37903bb4ba34323930bb9760591b604482015260640161045c565b3360008181526004602052604080822060038101805460ff19169055905190929184156108fc02918591818181858888f19350505050158015610afd573d6000803e3d6000fd5b5060405182815233907fa692503bc54c9f1d1483729b6058a24987097ff492084b1a8adf8cae08e4fb4390602001610586565b610b39336107f9565b610b555760405162461bcd60e51b815260040161045c90611131565b60008211610ba55760405162461bcd60e51b815260206004820181905260248201527f416d6f756e742073686f756c642062652067726561746572207468616e20302e604482015260640161045c565b60008111610c005760405162461bcd60e51b815260206004820152602260248201527f4475726174696f6e2073686f756c642062652067726561746572207468616e20604482015261181760f11b606482015260840161045c565b60038054600090815260056020526040902001544211610c725760405162461bcd60e51b815260206004820152602760248201527f50726576696f75732066756e6420686f7374696e67206e6f74207965742066696044820152663734b9b432b21760c91b606482015260840161045c565b60035460008181526005602052604090209081556001810180546001600160a01b0319163317905560028101839055610cab8242611168565b60038083019190915560058201805460ff191690558054906000610cce83611118565b9091555050805460038201546040513392917fc9562c195c259b9d34d2985e11f94dbc0272996d2c85cb0c7debfe2506e2728291610a3e91888252602082015260400190565b6001600160a01b03811660009081526004602052604081208054600182015460028301805485946060949093909290918190610d4f90610fb9565b80601f0160208091040260200160405190810160405280929190818152602001828054610d7b90610fb9565b8015610dc85780601f10610d9d57610100808354040283529160200191610dc8565b820191906000526020600020905b815481529060010190602001808311610dab57829003601f168201915b50505050509050935093509350509193909250565b600060208284031215610def57600080fd5b81356001600160a01b0381168114610e0657600080fd5b9392505050565b6000815180845260005b81811015610e3357602081850181015186830182015201610e17565b506000602082860101526020601f19601f83011685010191505092915050565b848152836020820152608060408201526000610e726080830185610e0d565b9050821515606083015295945050505050565b634e487b7160e01b600052604160045260246000fd5b60008060408385031215610eae57600080fd5b82359150602083013567ffffffffffffffff80821115610ecd57600080fd5b818501915085601f830112610ee157600080fd5b813581811115610ef357610ef3610e85565b604051601f8201601f19908116603f01168101908382118183101715610f1b57610f1b610e85565b81604052828152886020848701011115610f3457600080fd5b8260208601602083013760006020848301015280955050505050509250929050565b600060208284031215610f6857600080fd5b5035919050565b60008060408385031215610f8257600080fd5b50508035926020909101359150565b838152826020820152606060408201526000610fb06060830184610e0d565b95945050505050565b600181811c90821680610fcd57607f821691505b602082108103610fed57634e487b7160e01b600052602260045260246000fd5b50919050565b601f82111561103d57600081815260208120601f850160051c8101602086101561101a5750805b601f850160051c820191505b8181101561103957828155600101611026565b5050505b505050565b815167ffffffffffffffff81111561105c5761105c610e85565b6110708161106a8454610fb9565b84610ff3565b602080601f8311600181146110a5576000841561108d5750858301515b600019600386901b1c1916600185901b178555611039565b600085815260208120601f198616915b828110156110d4578886015182559484019460019091019084016110b5565b50858210156110f25787850151600019600388901b60f8161c191681555b5050505050600190811b01905550565b634e487b7160e01b600052601160045260246000fd5b60006001820161112a5761112a611102565b5060010190565b6020808252601e908201527f43616c6c6572206973206e6f7420616e20616374697665206d656d6265720000604082015260600190565b8082018082111561117b5761117b611102565b92915050565b808202811582820484141761117b5761117b611102565b6000826111b557634e487b7160e01b600052601260045260246000fd5b50049056fea2646970667358221220fea3361dbe0342a17deb9f84d60b80d4fbd84669540d07e813c1feca4cfe757664736f6c63430008130033",
  "immutableReferences": {},
  "source": "// SPDX-License-Identifier: MIT\r\npragma solidity ^0.8.19;\r\n\r\ncontract DecentralizeAutoFund {\r\n    uint256 public minMoneySignUp;\r\n    uint256 public maxHostCount = 3;\r\n    uint256 public firstId;\r\n    uint256 public hostIdCounter;\r\n\r\n    struct Member {\r\n        uint256 id;\r\n        uint256 age;\r\n        string name;\r\n        bool isActive;\r\n    }\r\n\r\n    struct HostFund {\r\n        uint256 id;\r\n        address host;\r\n        uint256 amount;\r\n        uint256 endTime;\r\n        uint256 totalVotes;\r\n        bool isCompleted;\r\n    }\r\n\r\n    mapping(address => Member) public members;\r\n    mapping(uint256 => HostFund) public hostFunds;\r\n    mapping(uint256 => mapping(address => bool)) private fundVotes;\r\n\r\n    event MemberSignedUp(address indexed member, uint256 id, uint256 age, string name);\r\n    event FundHosted(uint256 indexed hostId, address indexed host, uint256 amount, uint256 endTime);\r\n    event Voted(address indexed member, uint256 indexed hostId, uint256 voteAmount);\r\n    event InvestmentMade(uint256 indexed hostId, address indexed host, uint256 amount);\r\n    event FundWithdrawn(address indexed member, uint256 amount);\r\n    event ProportionChanged(string indexed proportionType, uint256 newValue);\r\n\r\n    constructor(uint256 _minMoneySignUp) {\r\n        minMoneySignUp = _minMoneySignUp;\r\n        firstId = 0;\r\n        hostIdCounter = 0;\r\n    }\r\n\r\n    modifier onlyActiveMember() {\r\n        require(isMemberActive(msg.sender), \"Caller is not an active member\");\r\n        _;\r\n    }\r\n\r\n    function signUp(uint256 _age, string memory _name) public payable {\r\n        require(msg.value >= minMoneySignUp, \"Insufficient funds for sign up!\");\r\n        require(!members[msg.sender].isActive, \"Already signed up!\");\r\n\r\n        members[msg.sender] = Member(firstId, _age, _name, true);\r\n        firstId++;\r\n\r\n        emit MemberSignedUp(msg.sender, members[msg.sender].id, _age, _name);\r\n    }\r\n\r\n    function getListMember(address _addr) public view returns (uint256, uint256, string memory) {\r\n        Member storage member = members[_addr];\r\n        return (member.id, member.age, member.name);\r\n    }\r\n\r\n    function hostFund(uint256 _amount, uint256 _duration) public onlyActiveMember {\r\n        require(_amount > 0, \"Amount should be greater than 0.\");\r\n        require(_duration > 0, \"Duration should be greater than 0.\");\r\n        require(hostFunds[hostIdCounter].endTime < block.timestamp, \"Previous fund hosting not yet finished.\");\r\n\r\n        HostFund storage newFund = hostFunds[hostIdCounter];\r\n        newFund.id = hostIdCounter;\r\n        newFund.host = msg.sender;\r\n        newFund.amount = _amount;\r\n        newFund.endTime = block.timestamp + _duration;\r\n        newFund.isCompleted = false;\r\n\r\n        hostIdCounter++;\r\n\r\n        emit FundHosted(newFund.id, msg.sender, _amount, newFund.endTime);\r\n    }\r\n\r\n    function voteFund(uint256 _hostId) public onlyActiveMember payable {\r\n        HostFund storage fund = hostFunds[_hostId];\r\n        require(fund.endTime > block.timestamp, \"Voting period has ended.\");\r\n        require(!fundVotes[_hostId][msg.sender], \"You have already voted.\");\r\n        require(msg.value > 0, \"No value sent for voting.\");\r\n\r\n        fund.totalVotes += msg.value;\r\n        fundVotes[_hostId][msg.sender] = true;\r\n\r\n        emit Voted(msg.sender, _hostId, msg.value);\r\n    }\r\n\r\n    function makeInvestment(uint256 _hostId) public {\r\n        HostFund storage fund = hostFunds[_hostId];\r\n        require(fund.endTime <= block.timestamp, \"Voting period not ended yet.\");\r\n        require(!fund.isCompleted, \"Investment already made.\");\r\n\r\n        uint256 totalVotes = fund.totalVotes;\r\n        require(totalVotes > 0, \"No votes received.\");\r\n        require(totalVotes >= minMoneySignUp * 60 / 100, \"Insufficient votes to accept.\");\r\n\r\n        payable(fund.host).transfer(fund.amount);\r\n        fund.isCompleted = true;\r\n\r\n        emit InvestmentMade(_hostId, fund.host, fund.amount);\r\n    }\r\n\r\n    function withdrawFund() public onlyActiveMember {\r\n        uint256 balance = address(this).balance;\r\n        require(balance > 0, \"No funds to withdraw.\");\r\n\r\n        Member storage member = members[msg.sender];\r\n        member.isActive = false;\r\n\r\n        payable(msg.sender).transfer(balance);\r\n\r\n        emit FundWithdrawn(msg.sender, balance);\r\n    }\r\n\r\n    function changeProportionMemberSignUp(uint256 _newValue) public {\r\n        minMoneySignUp = _newValue;\r\n        emit ProportionChanged(\"MemberSignUp\", _newValue);\r\n    }\r\n\r\n    function changeProportionAcceptFund(uint256 _newValue) public {\r\n        // Update the acceptance proportion logic here if needed\r\n        require(_newValue <= 100, \"Percentage must be between 0 and 100\");\r\n        emit ProportionChanged(\"AcceptFund\", _newValue);\r\n    }\r\n\r\n    function getContractBalance() public view returns (uint256) {\r\n        return address(this).balance;\r\n    }\r\n\r\n    function isMemberActive(address member) public view returns (bool) {\r\n        return members[member].isActive;\r\n    }\r\n}\r\n",
  "sourcePath": "D:\\Workspace\\Project\\zksync-project-specialize\\contracts\\DecentralizeAutoFund.sol",
  "compiler": {
    "name": "solc",
    "version": "0.8.19+commit.7dd6d404.Emscripten.clang"
  },
  "schemaVersion": "3.4.16",
  "updatedAt": "2024-09-04T09:09:04.206Z",
  "networkType": "ethereum",
  "devdoc": {
    "kind": "dev",
    "methods": {},
    "version": 1
  },
  "userdoc": {
    "kind": "user",
    "methods": {},
    "version": 1
  }
}