{
  "contractName": "DecentralizeAutoFund",
  "abi": [
    {
      "inputs": [
        {
          "internalType": "uint256",
          "name": "_minMoneySignUp",
          "type": "uint256"
        }
      ],
      "stateMutability": "nonpayable",
      "type": "constructor"
    },
    {
      "anonymous": false,
      "inputs": [
        {
          "indexed": true,
          "internalType": "uint256",
          "name": "hostId",
          "type": "uint256"
        },
        {
          "indexed": true,
          "internalType": "address",
          "name": "host",
          "type": "address"
        },
        {
          "indexed": false,
          "internalType": "uint256",
          "name": "amount",
          "type": "uint256"
        },
        {
          "indexed": false,
          "internalType": "uint256",
          "name": "endTime",
          "type": "uint256"
        }
      ],
      "name": "FundHosted",
      "type": "event"
    },
    {
      "anonymous": false,
      "inputs": [
        {
          "indexed": true,
          "internalType": "address",
          "name": "member",
          "type": "address"
        },
        {
          "indexed": false,
          "internalType": "uint256",
          "name": "amount",
          "type": "uint256"
        }
      ],
      "name": "FundWithdrawn",
      "type": "event"
    },
    {
      "anonymous": false,
      "inputs": [
        {
          "indexed": true,
          "internalType": "uint256",
          "name": "hostId",
          "type": "uint256"
        },
        {
          "indexed": true,
          "internalType": "address",
          "name": "host",
          "type": "address"
        },
        {
          "indexed": false,
          "internalType": "uint256",
          "name": "amount",
          "type": "uint256"
        }
      ],
      "name": "InvestmentMade",
      "type": "event"
    },
    {
      "anonymous": false,
      "inputs": [
        {
          "indexed": true,
          "internalType": "address",
          "name": "member",
          "type": "address"
        },
        {
          "indexed": false,
          "internalType": "uint256",
          "name": "id",
          "type": "uint256"
        },
        {
          "indexed": false,
          "internalType": "uint256",
          "name": "age",
          "type": "uint256"
        },
        {
          "indexed": false,
          "internalType": "string",
          "name": "name",
          "type": "string"
        }
      ],
      "name": "MemberSignedUp",
      "type": "event"
    },
    {
      "anonymous": false,
      "inputs": [
        {
          "indexed": true,
          "internalType": "string",
          "name": "proportionType",
          "type": "string"
        },
        {
          "indexed": false,
          "internalType": "uint256",
          "name": "newValue",
          "type": "uint256"
        }
      ],
      "name": "ProportionChanged",
      "type": "event"
    },
    {
      "anonymous": false,
      "inputs": [
        {
          "indexed": true,
          "internalType": "address",
          "name": "member",
          "type": "address"
        },
        {
          "indexed": true,
          "internalType": "uint256",
          "name": "hostId",
          "type": "uint256"
        },
        {
          "indexed": false,
          "internalType": "uint256",
          "name": "voteAmount",
          "type": "uint256"
        }
      ],
      "name": "Voted",
      "type": "event"
    },
    {
      "inputs": [],
      "name": "firstId",
      "outputs": [
        {
          "internalType": "uint256",
          "name": "",
          "type": "uint256"
        }
      ],
      "stateMutability": "view",
      "type": "function",
      "constant": true
    },
    {
      "inputs": [
        {
          "internalType": "uint256",
          "name": "",
          "type": "uint256"
        }
      ],
      "name": "hostFunds",
      "outputs": [
        {
          "internalType": "uint256",
          "name": "id",
          "type": "uint256"
        },
        {
          "internalType": "address",
          "name": "host",
          "type": "address"
        },
        {
          "internalType": "uint256",
          "name": "amount",
          "type": "uint256"
        },
        {
          "internalType": "uint256",
          "name": "endTime",
          "type": "uint256"
        },
        {
          "internalType": "uint256",
          "name": "totalVotes",
          "type": "uint256"
        },
        {
          "internalType": "bool",
          "name": "isCompleted",
          "type": "bool"
        }
      ],
      "stateMutability": "view",
      "type": "function",
      "constant": true
    },
    {
      "inputs": [],
      "name": "hostIdCounter",
      "outputs": [
        {
          "internalType": "uint256",
          "name": "",
          "type": "uint256"
        }
      ],
      "stateMutability": "view",
      "type": "function",
      "constant": true
    },
    {
      "inputs": [],
      "name": "maxHostCount",
      "outputs": [
        {
          "internalType": "uint256",
          "name": "",
          "type": "uint256"
        }
      ],
      "stateMutability": "view",
      "type": "function",
      "constant": true
    },
    {
      "inputs": [
        {
          "internalType": "address",
          "name": "",
          "type": "address"
        }
      ],
      "name": "members",
      "outputs": [
        {
          "internalType": "uint256",
          "name": "id",
          "type": "uint256"
        },
        {
          "internalType": "uint256",
          "name": "age",
          "type": "uint256"
        },
        {
          "internalType": "string",
          "name": "name",
          "type": "string"
        },
        {
          "internalType": "bool",
          "name": "isActive",
          "type": "bool"
        }
      ],
      "stateMutability": "view",
      "type": "function",
      "constant": true
    },
    {
      "inputs": [],
      "name": "minMoneySignUp",
      "outputs": [
        {
          "internalType": "uint256",
          "name": "",
          "type": "uint256"
        }
      ],
      "stateMutability": "view",
      "type": "function",
      "constant": true
    },
    {
      "inputs": [
        {
          "internalType": "uint256",
          "name": "_age",
          "type": "uint256"
        },
        {
          "internalType": "string",
          "name": "_name",
          "type": "string"
        }
      ],
      "name": "signUp",
      "outputs": [],
      "stateMutability": "payable",
      "type": "function",
      "payable": true
    },
    {
      "inputs": [
        {
          "internalType": "address",
          "name": "_addr",
          "type": "address"
        }
      ],
      "name": "getListMember",
      "outputs": [
        {
          "internalType": "uint256",
          "name": "",
          "type": "uint256"
        },
        {
          "internalType": "uint256",
          "name": "",
          "type": "uint256"
        },
        {
          "internalType": "string",
          "name": "",
          "type": "string"
        }
      ],
      "stateMutability": "view",
      "type": "function",
      "constant": true
    },
    {
      "inputs": [
        {
          "internalType": "uint256",
          "name": "_amount",
          "type": "uint256"
        },
        {
          "internalType": "uint256",
          "name": "_duration",
          "type": "uint256"
        }
      ],
      "name": "hostFund",
      "outputs": [],
      "stateMutability": "nonpayable",
      "type": "function"
    },
    {
      "inputs": [
        {
          "internalType": "uint256",
          "name": "_hostId",
          "type": "uint256"
        }
      ],
      "name": "voteFund",
      "outputs": [],
      "stateMutability": "payable",
      "type": "function",
      "payable": true
    },
    {
      "inputs": [
        {
          "internalType": "uint256",
          "name": "_hostId",
          "type": "uint256"
        }
      ],
      "name": "makeInvestment",
      "outputs": [],
      "stateMutability": "nonpayable",
      "type": "function"
    },
    {
      "inputs": [],
      "name": "withdrawFund",
      "outputs": [],
      "stateMutability": "nonpayable",
      "type": "function"
    },
    {
      "inputs": [
        {
          "internalType": "uint256",
          "name": "_newValue",
          "type": "uint256"
        }
      ],
      "name": "changeProportionMemberSignUp",
      "outputs": [],
      "stateMutability": "nonpayable",
      "type": "function"
    },
    {
      "inputs": [
        {
          "internalType": "uint256",
          "name": "_newValue",
          "type": "uint256"
        }
      ],
      "name": "changeProportionAcceptFund",
      "outputs": [],
      "stateMutability": "nonpayable",
      "type": "function"
    },
    {
      "inputs": [],
      "name": "getContractBalance",
      "outputs": [
        {
          "internalType": "uint256",
          "name": "",
          "type": "uint256"
        }
      ],
      "stateMutability": "view",
      "type": "function",
      "constant": true
    },
    {
      "inputs": [
        {
          "internalType": "address",
          "name": "member",
          "type": "address"
        }
      ],
      "name": "isMemberActive",
      "outputs": [
        {
          "internalType": "bool",
          "name": "",
          "type": "bool"
        }
      ],
      "stateMutability": "view",
      "type": "function",
      "constant": true
    },
    {
      "inputs": [],
      "name": "getMemberCount",
      "outputs": [
        {
          "internalType": "uint256",
          "name": "",
          "type": "uint256"
        }
      ],
      "stateMutability": "view",
      "type": "function",
      "constant": true
    },
    {
      "inputs": [],
      "name": "getMembers",
      "outputs": [
        {
          "internalType": "address[]",
          "name": "",
          "type": "address[]"
        },
        {
          "internalType": "uint256[]",
          "name": "",
          "type": "uint256[]"
        },
        {
          "internalType": "string[]",
          "name": "",
          "type": "string[]"
        }
      ],
      "stateMutability": "view",
      "type": "function",
      "constant": true
    }
  ],
  "bytecode": "0x6080604052600360015534801561001557600080fd5b5060405161164438038061164483398101604081905261003491610046565b6000908155600281905560035561005f565b60006020828403121561005857600080fd5b5051919050565b6115d68061006e6000396000f3fe6080604052600436106101095760003560e01c8063997072f711610095578063e07fa3c111610064578063e07fa3c114610319578063f0c9fb681461032e578063f56d8af614610344578063fa44f1fa14610364578063feea8ea81461039357600080fd5b8063997072f71461022c5780639eab525314610241578063ba3eefc514610265578063bfe8645a1461028557600080fd5b806330cb8d5c116100dc57806330cb8d5c14610193578063401576a2146101b357806367317647146101c95780636f9fb98a146101f95780637d00e03d1461020c57600080fd5b806308ae4b0c1461010e57806316ffffad146101475780632bf4ec851461016b5780632cee547214610180575b600080fd5b34801561011a57600080fd5b5061012e6101293660046110c1565b6103a9565b60405161013e9493929190611137565b60405180910390f35b34801561015357600080fd5b5061015d60015481565b60405190815260200161013e565b61017e61017936600461117f565b61045d565b005b61017e61018e36600461123a565b6105e1565b34801561019f57600080fd5b5061017e6101ae36600461123a565b610797565b3480156101bf57600080fd5b5061015d60025481565b3480156101d557600080fd5b506101e96101e43660046110c1565b610848565b604051901515815260200161013e565b34801561020557600080fd5b504761015d565b34801561021857600080fd5b5061017e61022736600461123a565b610869565b34801561023857600080fd5b5060025461015d565b34801561024d57600080fd5b5061025661088b565b60405161013e939291906112a8565b34801561027157600080fd5b5061017e61028036600461123a565b610b20565b34801561029157600080fd5b506102e26102a036600461123a565b600560208190526000918252604090912080546001820154600283015460038401546004850154949095015492946001600160a01b0390921693909260ff1686565b604080519687526001600160a01b0390951660208701529385019290925260608401526080830152151560a082015260c00161013e565b34801561032557600080fd5b5061017e610d2f565b34801561033a57600080fd5b5061015d60035481565b34801561035057600080fd5b5061017e61035f36600461133f565b610e14565b34801561037057600080fd5b5061038461037f3660046110c1565b610ff8565b60405161013e93929190611361565b34801561039f57600080fd5b5061015d60005481565b600460205260009081526040902080546001820154600283018054929391926103d190611389565b80601f01602080910402602001604051908101604052809291908181526020018280546103fd90611389565b801561044a5780601f1061041f5761010080835404028352916020019161044a565b820191906000526020600020905b81548152906001019060200180831161042d57829003601f168201915b5050506003909301549192505060ff1684565b6000543410156104b45760405162461bcd60e51b815260206004820152601f60248201527f496e73756666696369656e742066756e647320666f72207369676e207570210060448201526064015b60405180910390fd5b3360009081526004602052604090206003015460ff161561050c5760405162461bcd60e51b8152602060048201526012602482015271416c7265616479207369676e65642075702160701b60448201526064016104ab565b6040805160808101825260028054825260208083018681528385018681526001606086018190523360009081526004909452959092208451815590519481019490945551919291908201906105619082611412565b50606091909101516003909101805460ff19169115159190911790556002805490600061058d836114e8565b909155505033600081815260046020526040908190205490517f3f3d01f76400fe7661b44c3e4a0eac695c58ff054f91dcd0d9de2cd11d997507916105d59186908690611361565b60405180910390a25050565b6105ea33610848565b6106065760405162461bcd60e51b81526004016104ab90611501565b6000818152600560205260409020600381015442106106675760405162461bcd60e51b815260206004820152601860248201527f566f74696e6720706572696f642068617320656e6465642e000000000000000060448201526064016104ab565b600082815260066020908152604080832033845290915290205460ff16156106d15760405162461bcd60e51b815260206004820152601760248201527f596f75206861766520616c726561647920766f7465642e00000000000000000060448201526064016104ab565b600034116107215760405162461bcd60e51b815260206004820152601960248201527f4e6f2076616c75652073656e7420666f7220766f74696e672e0000000000000060448201526064016104ab565b348160040160008282546107359190611538565b909155505060008281526006602090815260408083203380855290835292819020805460ff19166001179055513481528492917fea66f58e474bc09f580000e81f31b334d171db387d0c6098ba47bd897741679b910160405180910390a35050565b60648111156107f45760405162461bcd60e51b8152602060048201526024808201527f50657263656e74616765206d757374206265206265747765656e203020616e646044820152630203130360e41b60648201526084016104ab565b604051691058d8d95c1d119d5b9960b21b8152600a015b604051908190038120828252907fa9d473da28e6c4d0eaba53098123503d170ae554c6ca13b664b4b55b1094a1ae9060200160405180910390a250565b6001600160a01b031660009081526004602052604090206003015460ff1690565b60008190556040516b04d656d6265725369676e55760a41b8152600c0161080b565b6060806060600060025467ffffffffffffffff8111156108ad576108ad611169565b6040519080825280602002602001820160405280156108d6578160200160208202803683370190505b509050600060025467ffffffffffffffff8111156108f6576108f6611169565b60405190808252806020026020018201604052801561091f578160200160208202803683370190505b509050600060025467ffffffffffffffff81111561093f5761093f611169565b60405190808252806020026020018201604052801561097257816020015b606081526020019060019003908161095d5790505b5090506000805b600254811015610b13576001600160a01b038116600090815260046020526040902060030154819060ff1615610b0057808684815181106109bc576109bc611551565b60200260200101906001600160a01b031690816001600160a01b03168152505060046000826001600160a01b03166001600160a01b0316815260200190815260200160002060010154858481518110610a1757610a17611551565b60200260200101818152505060046000826001600160a01b03166001600160a01b031681526020019081526020016000206002018054610a5690611389565b80601f0160208091040260200160405190810160405280929190818152602001828054610a8290611389565b8015610acf5780601f10610aa457610100808354040283529160200191610acf565b820191906000526020600020905b815481529060010190602001808311610ab257829003601f168201915b5050505050848481518110610ae657610ae6611551565b60200260200101819052508280610afc906114e8565b9350505b5080610b0b816114e8565b915050610979565b5092969195509350915050565b60008181526005602052604090206003810154421015610b825760405162461bcd60e51b815260206004820152601c60248201527f566f74696e6720706572696f64206e6f7420656e646564207965742e0000000060448201526064016104ab565b600581015460ff1615610bd75760405162461bcd60e51b815260206004820152601860248201527f496e766573746d656e7420616c7265616479206d6164652e000000000000000060448201526064016104ab565b600481015480610c1e5760405162461bcd60e51b81526020600482015260126024820152712737903b37ba32b9903932b1b2b4bb32b21760711b60448201526064016104ab565b6064600054603c610c2f9190611567565b610c39919061157e565b811015610c885760405162461bcd60e51b815260206004820152601d60248201527f496e73756666696369656e7420766f74657320746f206163636570742e00000060448201526064016104ab565b600182015460028301546040516001600160a01b039092169181156108fc0291906000818181858888f19350505050158015610cc8573d6000803e3d6000fd5b5060058201805460ff1916600190811790915582015460028301546040516001600160a01b039092169185917f89728d542d77fad9fe42c7d1f032c2b85f64cf938d754183b0e95359fbfac8a191610d2291815260200190565b60405180910390a3505050565b610d3833610848565b610d545760405162461bcd60e51b81526004016104ab90611501565b4780610d9a5760405162461bcd60e51b8152602060048201526015602482015274273790333ab73239903a37903bb4ba34323930bb9760591b60448201526064016104ab565b3360008181526004602052604080822060038101805460ff19169055905190929184156108fc02918591818181858888f19350505050158015610de1573d6000803e3d6000fd5b5060405182815233907fa692503bc54c9f1d1483729b6058a24987097ff492084b1a8adf8cae08e4fb43906020016105d5565b610e1d33610848565b610e395760405162461bcd60e51b81526004016104ab90611501565b60008211610e895760405162461bcd60e51b815260206004820181905260248201527f416d6f756e742073686f756c642062652067726561746572207468616e20302e60448201526064016104ab565b60008111610ee45760405162461bcd60e51b815260206004820152602260248201527f4475726174696f6e2073686f756c642062652067726561746572207468616e20604482015261181760f11b60648201526084016104ab565b60038054600090815260056020526040902001544211610f565760405162461bcd60e51b815260206004820152602760248201527f50726576696f75732066756e6420686f7374696e67206e6f74207965742066696044820152663734b9b432b21760c91b60648201526084016104ab565b60035460008181526005602052604090209081556001810180546001600160a01b0319163317905560028101839055610f8f8242611538565b60038083019190915560058201805460ff191690558054906000610fb2836114e8565b9091555050805460038201546040513392917fc9562c195c259b9d34d2985e11f94dbc0272996d2c85cb0c7debfe2506e2728291610d2291888252602082015260400190565b6001600160a01b0381166000908152600460205260408120805460018201546002830180548594606094909390929091819061103390611389565b80601f016020809104026020016040519081016040528092919081815260200182805461105f90611389565b80156110ac5780601f10611081576101008083540402835291602001916110ac565b820191906000526020600020905b81548152906001019060200180831161108f57829003601f168201915b50505050509050935093509350509193909250565b6000602082840312156110d357600080fd5b81356001600160a01b03811681146110ea57600080fd5b9392505050565b6000815180845260005b81811015611117576020818501810151868301820152016110fb565b506000602082860101526020601f19601f83011685010191505092915050565b84815283602082015260806040820152600061115660808301856110f1565b9050821515606083015295945050505050565b634e487b7160e01b600052604160045260246000fd5b6000806040838503121561119257600080fd5b82359150602083013567ffffffffffffffff808211156111b157600080fd5b818501915085601f8301126111c557600080fd5b8135818111156111d7576111d7611169565b604051601f8201601f19908116603f011681019083821181831017156111ff576111ff611169565b8160405282815288602084870101111561121857600080fd5b8260208601602083013760006020848301015280955050505050509250929050565b60006020828403121561124c57600080fd5b5035919050565b600081518084526020808501808196508360051b8101915082860160005b8581101561129b5782840389526112898483516110f1565b98850198935090840190600101611271565b5091979650505050505050565b606080825284519082018190526000906020906080840190828801845b828110156112ea5781516001600160a01b0316845292840192908401906001016112c5565b5050508381038285015285518082528683019183019060005b8181101561131f57835183529284019291840191600101611303565b505084810360408601526113338187611253565b98975050505050505050565b6000806040838503121561135257600080fd5b50508035926020909101359150565b83815282602082015260606040820152600061138060608301846110f1565b95945050505050565b600181811c9082168061139d57607f821691505b6020821081036113bd57634e487b7160e01b600052602260045260246000fd5b50919050565b601f82111561140d57600081815260208120601f850160051c810160208610156113ea5750805b601f850160051c820191505b81811015611409578281556001016113f6565b5050505b505050565b815167ffffffffffffffff81111561142c5761142c611169565b6114408161143a8454611389565b846113c3565b602080601f831160018114611475576000841561145d5750858301515b600019600386901b1c1916600185901b178555611409565b600085815260208120601f198616915b828110156114a457888601518255948401946001909101908401611485565b50858210156114c25787850151600019600388901b60f8161c191681555b5050505050600190811b01905550565b634e487b7160e01b600052601160045260246000fd5b6000600182016114fa576114fa6114d2565b5060010190565b6020808252601e908201527f43616c6c6572206973206e6f7420616e20616374697665206d656d6265720000604082015260600190565b8082018082111561154b5761154b6114d2565b92915050565b634e487b7160e01b600052603260045260246000fd5b808202811582820484141761154b5761154b6114d2565b60008261159b57634e487b7160e01b600052601260045260246000fd5b50049056fea26469706673582212204cf4597332b96c0655b07c08bc476a9b065cf33823a8738289851e33f73d0cb164736f6c63430008130033",
  "immutableReferences": {},
  "source": "// SPDX-License-Identifier: MIT\r\npragma solidity ^0.8.19;\r\n\r\ncontract DecentralizeAutoFund {\r\n    uint256 public minMoneySignUp;\r\n    uint256 public maxHostCount = 3;\r\n    uint256 public firstId;\r\n    uint256 public hostIdCounter;\r\n\r\n    struct Member {\r\n        uint256 id;\r\n        uint256 age;\r\n        string name;\r\n        bool isActive;\r\n    }\r\n\r\n    struct HostFund {\r\n        uint256 id;\r\n        address host;\r\n        uint256 amount;\r\n        uint256 endTime;\r\n        uint256 totalVotes;\r\n        bool isCompleted;\r\n    }\r\n\r\n    mapping(address => Member) public members;\r\n    mapping(uint256 => HostFund) public hostFunds;\r\n    mapping(uint256 => mapping(address => bool)) private fundVotes;\r\n\r\n    event MemberSignedUp(address indexed member, uint256 id, uint256 age, string name);\r\n    event FundHosted(uint256 indexed hostId, address indexed host, uint256 amount, uint256 endTime);\r\n    event Voted(address indexed member, uint256 indexed hostId, uint256 voteAmount);\r\n    event InvestmentMade(uint256 indexed hostId, address indexed host, uint256 amount);\r\n    event FundWithdrawn(address indexed member, uint256 amount);\r\n    event ProportionChanged(string indexed proportionType, uint256 newValue);\r\n\r\n    constructor(uint256 _minMoneySignUp) {\r\n        minMoneySignUp = _minMoneySignUp;\r\n        firstId = 0;\r\n        hostIdCounter = 0;\r\n    }\r\n\r\n    modifier onlyActiveMember() {\r\n        require(isMemberActive(msg.sender), \"Caller is not an active member\");\r\n        _;\r\n    }\r\n\r\n    function signUp(uint256 _age, string memory _name) public payable {\r\n        require(msg.value >= minMoneySignUp, \"Insufficient funds for sign up!\");\r\n        require(!members[msg.sender].isActive, \"Already signed up!\");\r\n\r\n        members[msg.sender] = Member(firstId, _age, _name, true);\r\n        firstId++;\r\n\r\n        emit MemberSignedUp(msg.sender, members[msg.sender].id, _age, _name);\r\n    }\r\n\r\n    function getListMember(address _addr) public view returns (uint256, uint256, string memory) {\r\n        Member storage member = members[_addr];\r\n        return (member.id, member.age, member.name);\r\n    }\r\n\r\n    function hostFund(uint256 _amount, uint256 _duration) public onlyActiveMember {\r\n        require(_amount > 0, \"Amount should be greater than 0.\");\r\n        require(_duration > 0, \"Duration should be greater than 0.\");\r\n        require(hostFunds[hostIdCounter].endTime < block.timestamp, \"Previous fund hosting not yet finished.\");\r\n\r\n        HostFund storage newFund = hostFunds[hostIdCounter];\r\n        newFund.id = hostIdCounter;\r\n        newFund.host = msg.sender;\r\n        newFund.amount = _amount;\r\n        newFund.endTime = block.timestamp + _duration;\r\n        newFund.isCompleted = false;\r\n\r\n        hostIdCounter++;\r\n\r\n        emit FundHosted(newFund.id, msg.sender, _amount, newFund.endTime);\r\n    }\r\n\r\n    function voteFund(uint256 _hostId) public onlyActiveMember payable {\r\n        HostFund storage fund = hostFunds[_hostId];\r\n        require(fund.endTime > block.timestamp, \"Voting period has ended.\");\r\n        require(!fundVotes[_hostId][msg.sender], \"You have already voted.\");\r\n        require(msg.value > 0, \"No value sent for voting.\");\r\n\r\n        fund.totalVotes += msg.value;\r\n        fundVotes[_hostId][msg.sender] = true;\r\n\r\n        emit Voted(msg.sender, _hostId, msg.value);\r\n    }\r\n\r\n    function makeInvestment(uint256 _hostId) public {\r\n        HostFund storage fund = hostFunds[_hostId];\r\n        require(fund.endTime <= block.timestamp, \"Voting period not ended yet.\");\r\n        require(!fund.isCompleted, \"Investment already made.\");\r\n\r\n        uint256 totalVotes = fund.totalVotes;\r\n        require(totalVotes > 0, \"No votes received.\");\r\n        require(totalVotes >= minMoneySignUp * 60 / 100, \"Insufficient votes to accept.\");\r\n\r\n        payable(fund.host).transfer(fund.amount);\r\n        fund.isCompleted = true;\r\n\r\n        emit InvestmentMade(_hostId, fund.host, fund.amount);\r\n    }\r\n\r\n    function withdrawFund() public onlyActiveMember {\r\n        uint256 balance = address(this).balance;\r\n        require(balance > 0, \"No funds to withdraw.\");\r\n\r\n        Member storage member = members[msg.sender];\r\n        member.isActive = false;\r\n\r\n        payable(msg.sender).transfer(balance);\r\n\r\n        emit FundWithdrawn(msg.sender, balance);\r\n    }\r\n\r\n    function changeProportionMemberSignUp(uint256 _newValue) public {\r\n        minMoneySignUp = _newValue;\r\n        emit ProportionChanged(\"MemberSignUp\", _newValue);\r\n    }\r\n\r\n    function changeProportionAcceptFund(uint256 _newValue) public {\r\n        // Update the acceptance proportion logic here if needed\r\n        require(_newValue <= 100, \"Percentage must be between 0 and 100\");\r\n        emit ProportionChanged(\"AcceptFund\", _newValue);\r\n    }\r\n\r\n    function getContractBalance() public view returns (uint256) {\r\n        return address(this).balance;\r\n    }\r\n\r\n    function isMemberActive(address member) public view returns (bool) {\r\n        return members[member].isActive;\r\n    }\r\n\r\n    function getMemberCount() public view returns (uint256) {\r\n        return firstId;\r\n    }\r\n\r\n    function getMembers() public view returns (address[] memory, uint256[] memory, string[] memory) {\r\n        address[] memory memberAddresses = new address[](firstId);\r\n        uint256[] memory ages = new uint256[](firstId);\r\n        string[] memory names = new string[](firstId);\r\n        uint256 count = 0;\r\n        for (uint256 i = 0; i < firstId; i++) {\r\n            address memberAddress = address(uint160(i));\r\n            if (members[memberAddress].isActive) {\r\n                memberAddresses[count] = memberAddress;\r\n                ages[count] = members[memberAddress].age;\r\n                names[count] = members[memberAddress].name;\r\n                count++;\r\n            }\r\n        }\r\n        return (memberAddresses, ages, names);\r\n    }\r\n}\r\n",
  "sourcePath": "D:\\Workspace\\Project\\zksync-project-specialize\\contracts\\DecentralizeAutoFund.sol",
  "compiler": {
    "name": "solc",
    "version": "0.8.19+commit.7dd6d404.Emscripten.clang"
  },
  "schemaVersion": "3.4.16",
  "updatedAt": "2024-09-05T03:43:43.953Z",
  "networkType": "ethereum",
  "devdoc": {
    "kind": "dev",
    "methods": {},
    "version": 1
  },
  "userdoc": {
    "kind": "user",
    "methods": {},
    "version": 1
  }
}