{
  "contractName": "FundCoreL2",
  "abi": [
    {
      "inputs": [
        {
          "internalType": "address",
          "name": "_l1Source",
          "type": "address"
        },
        {
          "internalType": "address",
          "name": "_l1Messenger",
          "type": "address"
        }
      ],
      "stateMutability": "nonpayable",
      "type": "constructor"
    },
    {
      "anonymous": false,
      "inputs": [
        {
          "indexed": true,
          "internalType": "uint256",
          "name": "fundRaiserId",
          "type": "uint256"
        },
        {
          "indexed": true,
          "internalType": "address",
          "name": "contributor",
          "type": "address"
        },
        {
          "indexed": false,
          "internalType": "uint256",
          "name": "amount",
          "type": "uint256"
        }
      ],
      "name": "ContributionMade",
      "type": "event"
    },
    {
      "anonymous": false,
      "inputs": [
        {
          "indexed": true,
          "internalType": "uint256",
          "name": "fundRaiserId",
          "type": "uint256"
        },
        {
          "indexed": false,
          "internalType": "bool",
          "name": "isActive",
          "type": "bool"
        }
      ],
      "name": "FundRaiserStatusUpdated",
      "type": "event"
    },
    {
      "anonymous": false,
      "inputs": [
        {
          "indexed": true,
          "internalType": "uint256",
          "name": "fundRaiserId",
          "type": "uint256"
        },
        {
          "indexed": true,
          "internalType": "address",
          "name": "contributor",
          "type": "address"
        },
        {
          "indexed": false,
          "internalType": "uint256",
          "name": "amount",
          "type": "uint256"
        }
      ],
      "name": "FundWithdrawal",
      "type": "event"
    },
    {
      "anonymous": false,
      "inputs": [
        {
          "indexed": true,
          "internalType": "address",
          "name": "previousOwner",
          "type": "address"
        },
        {
          "indexed": true,
          "internalType": "address",
          "name": "newOwner",
          "type": "address"
        }
      ],
      "name": "OwnershipTransferred",
      "type": "event"
    },
    {
      "inputs": [
        {
          "internalType": "uint256",
          "name": "",
          "type": "uint256"
        },
        {
          "internalType": "address",
          "name": "",
          "type": "address"
        }
      ],
      "name": "contributions",
      "outputs": [
        {
          "internalType": "uint256",
          "name": "",
          "type": "uint256"
        }
      ],
      "stateMutability": "view",
      "type": "function"
    },
    {
      "inputs": [
        {
          "internalType": "uint256",
          "name": "",
          "type": "uint256"
        }
      ],
      "name": "fundRaiserStatus",
      "outputs": [
        {
          "internalType": "bool",
          "name": "",
          "type": "bool"
        }
      ],
      "stateMutability": "view",
      "type": "function"
    },
    {
      "inputs": [],
      "name": "l1Messenger",
      "outputs": [
        {
          "internalType": "contract IL1Messenger",
          "name": "",
          "type": "address"
        }
      ],
      "stateMutability": "view",
      "type": "function"
    },
    {
      "inputs": [],
      "name": "l1Source",
      "outputs": [
        {
          "internalType": "address",
          "name": "",
          "type": "address"
        }
      ],
      "stateMutability": "view",
      "type": "function"
    },
    {
      "inputs": [],
      "name": "owner",
      "outputs": [
        {
          "internalType": "address",
          "name": "",
          "type": "address"
        }
      ],
      "stateMutability": "view",
      "type": "function"
    },
    {
      "inputs": [],
      "name": "renounceOwnership",
      "outputs": [],
      "stateMutability": "nonpayable",
      "type": "function"
    },
    {
      "inputs": [
        {
          "internalType": "address",
          "name": "newOwner",
          "type": "address"
        }
      ],
      "name": "transferOwnership",
      "outputs": [],
      "stateMutability": "nonpayable",
      "type": "function"
    },
    {
      "inputs": [
        {
          "internalType": "uint256",
          "name": "_fundRaiserId",
          "type": "uint256"
        }
      ],
      "name": "contribute",
      "outputs": [],
      "stateMutability": "payable",
      "type": "function"
    },
    {
      "inputs": [
        {
          "internalType": "uint256",
          "name": "_fundRaiserId",
          "type": "uint256"
        },
        {
          "internalType": "uint256",
          "name": "_amount",
          "type": "uint256"
        }
      ],
      "name": "withdrawFund",
      "outputs": [],
      "stateMutability": "nonpayable",
      "type": "function"
    },
    {
      "inputs": [
        {
          "internalType": "uint256",
          "name": "_fundRaiserId",
          "type": "uint256"
        },
        {
          "internalType": "bool",
          "name": "_isActive",
          "type": "bool"
        }
      ],
      "name": "setFundRaiserStatus",
      "outputs": [],
      "stateMutability": "nonpayable",
      "type": "function"
    },
    {
      "inputs": [
        {
          "internalType": "uint256",
          "name": "_fundRaiserId",
          "type": "uint256"
        },
        {
          "internalType": "bool",
          "name": "_isActive",
          "type": "bool"
        }
      ],
      "name": "processL1Message",
      "outputs": [],
      "stateMutability": "nonpayable",
      "type": "function"
    },
    {
      "inputs": [
        {
          "internalType": "uint256",
          "name": "_fundRaiserId",
          "type": "uint256"
        },
        {
          "internalType": "address",
          "name": "_host",
          "type": "address"
        },
        {
          "internalType": "string",
          "name": "_nameFund",
          "type": "string"
        },
        {
          "internalType": "string",
          "name": "_reason",
          "type": "string"
        },
        {
          "internalType": "uint256",
          "name": "_goalAmount",
          "type": "uint256"
        },
        {
          "internalType": "uint256",
          "name": "_endTime",
          "type": "uint256"
        },
        {
          "internalType": "uint256",
          "name": "_raisedAmount",
          "type": "uint256"
        },
        {
          "internalType": "bool",
          "name": "_isActive",
          "type": "bool"
        }
      ],
      "name": "sendMessageToL1",
      "outputs": [],
      "stateMutability": "nonpayable",
      "type": "function"
    },
    {
      "inputs": [
        {
          "internalType": "uint256",
          "name": "_fundRaiserId",
          "type": "uint256"
        },
        {
          "internalType": "bool",
          "name": "_isActive",
          "type": "bool"
        }
      ],
      "name": "updateFundRaiserFromL1",
      "outputs": [],
      "stateMutability": "nonpayable",
      "type": "function"
    }
  ],
  "bytecode": "0x608060405234801561001057600080fd5b50604051610df3380380610df383398101604081905261002f91610192565b61003833610126565b6001600160a01b0382166100935760405162461bcd60e51b815260206004820181905260248201527f4c3120736f7572636520616464726573732063616e6e6f74206265207a65726f60448201526064015b60405180910390fd5b6001600160a01b0381166100f55760405162461bcd60e51b815260206004820152602360248201527f4c31206d657373656e67657220616464726573732063616e6e6f74206265207a60448201526265726f60e81b606482015260840161008a565b600180546001600160a01b039384166001600160a01b031991821617909155600280549290931691161790556101c5565b600080546001600160a01b038381166001600160a01b0319831681178455604051919092169283917f8be0079c531659141344cd1fd0a4f28419497f9722a3daafe3b4186f6b6457e09190a35050565b80516001600160a01b038116811461018d57600080fd5b919050565b600080604083850312156101a557600080fd5b6101ae83610176565b91506101bc60208401610176565b90509250929050565b610c1f806101d46000396000f3fe6080604052600436106100c25760003560e01c8063715018a61161007f578063b88d09f611610059578063b88d09f61461023f578063c1cbbca71461025f578063d393fd5a146101ac578063f2fde38b1461027257600080fd5b8063715018a6146101ec5780638da5cb5b146102015780639545f5621461021f57600080fd5b806310fbe3c3146100c75780633d891f591461010457806350f499741461014a5780635b71ede01461016c5780635c7ea180146101ac5780636140e0e6146101cc575b600080fd5b3480156100d357600080fd5b506001546100e7906001600160a01b031681565b6040516001600160a01b0390911681526020015b60405180910390f35b34801561011057600080fd5b5061013c61011f36600461088c565b600360209081526000928352604080842090915290825290205481565b6040519081526020016100fb565b34801561015657600080fd5b5061016a6101653660046108c8565b610292565b005b34801561017857600080fd5b5061019c6101873660046108eb565b60046020526000908152604090205460ff1681565b60405190151581526020016100fb565b3480156101b857600080fd5b5061016a6101c73660046108c8565b610397565b3480156101d857600080fd5b506002546100e7906001600160a01b031681565b3480156101f857600080fd5b5061016a6103f1565b34801561020d57600080fd5b506000546001600160a01b03166100e7565b34801561022b57600080fd5b5061016a61023a3660046109a7565b610427565b34801561024b57600080fd5b5061016a61025a366004610a53565b610500565b61016a61026d3660046108eb565b610665565b34801561027e57600080fd5b5061016a61028d366004610a75565b610785565b6000546001600160a01b031633146102c55760405162461bcd60e51b81526004016102bc90610a97565b60405180910390fd5b60008281526004602052604090205481151560ff9091161515036103405760405162461bcd60e51b815260206004820152602c60248201527f53746174757320697320616c72656164792073657420746f207468652072657160448201526b7565737465642076616c756560a01b60648201526084016102bc565b600082815260046020908152604091829020805460ff1916841515908117909155915191825283917f4482bf06245c75a044a38299bb164a1c5286c6c347494badd8ac1deed4b42a64910160405180910390a25050565b6001546001600160a01b031633146103405760405162461bcd60e51b815260206004820152601c60248201527f4f6e6c79204c3120736f757263652063616e2063616c6c20746869730000000060448201526064016102bc565b6000546001600160a01b0316331461041b5760405162461bcd60e51b81526004016102bc90610a97565b6104256000610820565b565b6000546001600160a01b031633146104515760405162461bcd60e51b81526004016102bc90610a97565b60008888888888888888604051602001610472989796959493929190610b12565b60408051601f19818403018152908290526002546318be12c960e21b83529092506001600160a01b0316906362f84b24906104b1908490600401610b7b565b6020604051808303816000875af11580156104d0573d6000803e3d6000fd5b505050506040513d601f19601f820116820180604052508101906104f49190610b8e565b50505050505050505050565b60008281526004602052604090205460ff166105595760405162461bcd60e51b815260206004820152601860248201527746756e64726169736572206973206e6f742061637469766560401b60448201526064016102bc565b600081118015610582575060008281526003602090815260408083203384529091529020548111155b6105ce5760405162461bcd60e51b815260206004820152601960248201527f496e76616c6964207769746864726177616c20616d6f756e740000000000000060448201526064016102bc565b6000828152600360209081526040808320338452909152812080548392906105f7908490610bbd565b9091555050604051339082156108fc029083906000818181858888f19350505050158015610629573d6000803e3d6000fd5b50604051818152339083907fc33e4dca572b355cded8fdb2bca7feb0851cd7b5bdd892b0278ce33b6659b79d9060200160405180910390a35050565b60008181526004602052604090205460ff166106be5760405162461bcd60e51b815260206004820152601860248201527746756e64726169736572206973206e6f742061637469766560401b60448201526064016102bc565b6000341161071d5760405162461bcd60e51b815260206004820152602660248201527f436f6e747269627574696f6e206d7573742062652067726561746572207468616044820152656e207a65726f60d01b60648201526084016102bc565b600081815260036020908152604080832033845290915281208054349290610746908490610bd6565b9091555050604051348152339082907f0a4a91237423e0a1766a761c7cb029311d8b95d6b1b81db1b949a70c98b4e08e9060200160405180910390a350565b6000546001600160a01b031633146107af5760405162461bcd60e51b81526004016102bc90610a97565b6001600160a01b0381166108145760405162461bcd60e51b815260206004820152602660248201527f4f776e61626c653a206e6577206f776e657220697320746865207a65726f206160448201526564647265737360d01b60648201526084016102bc565b61081d81610820565b50565b600080546001600160a01b038381166001600160a01b0319831681178455604051919092169283917f8be0079c531659141344cd1fd0a4f28419497f9722a3daafe3b4186f6b6457e09190a35050565b80356001600160a01b038116811461088757600080fd5b919050565b6000806040838503121561089f57600080fd5b823591506108af60208401610870565b90509250929050565b8035801515811461088757600080fd5b600080604083850312156108db57600080fd5b823591506108af602084016108b8565b6000602082840312156108fd57600080fd5b5035919050565b634e487b7160e01b600052604160045260246000fd5b600082601f83011261092b57600080fd5b813567ffffffffffffffff8082111561094657610946610904565b604051601f8301601f19908116603f0116810190828211818310171561096e5761096e610904565b8160405283815286602085880101111561098757600080fd5b836020870160208301376000602085830101528094505050505092915050565b600080600080600080600080610100898b0312156109c457600080fd5b883597506109d460208a01610870565b9650604089013567ffffffffffffffff808211156109f157600080fd5b6109fd8c838d0161091a565b975060608b0135915080821115610a1357600080fd5b50610a208b828c0161091a565b9550506080890135935060a0890135925060c08901359150610a4460e08a016108b8565b90509295985092959890939650565b60008060408385031215610a6657600080fd5b50508035926020909101359150565b600060208284031215610a8757600080fd5b610a9082610870565b9392505050565b6020808252818101527f4f776e61626c653a2063616c6c6572206973206e6f7420746865206f776e6572604082015260600190565b6000815180845260005b81811015610af257602081850181015186830182015201610ad6565b506000602082860101526020601f19601f83011685010191505092915050565b8881526001600160a01b038816602082015261010060408201819052600090610b3d8382018a610acc565b90508281036060840152610b518189610acc565b9150508560808301528460a08301528360c083015282151560e08301529998505050505050505050565b602081526000610a906020830184610acc565b600060208284031215610ba057600080fd5b5051919050565b634e487b7160e01b600052601160045260246000fd5b81810381811115610bd057610bd0610ba7565b92915050565b80820180821115610bd057610bd0610ba756fea2646970667358221220e392ea4f84c1df6b2038ead69855e36463a11e7e486a8d76ec2c116dae9c9d1164736f6c63430008130033",
  "immutableReferences": {},
  "source": "// SPDX-License-Identifier: MIT\r\npragma solidity ^0.8.0;\r\n\r\nimport \"@openzeppelin/contracts/access/Ownable.sol\";\r\nimport \"@matterlabs/zksync-contracts/l2/system-contracts/interfaces/IL1Messenger.sol\";\r\n\r\ncontract FundCoreL2 is Ownable {\r\n    address public l1Source;\r\n    IL1Messenger public l1Messenger;\r\n\r\n    constructor(address _l1Source, address _l1Messenger) {\r\n        require(_l1Source != address(0), \"L1 source address cannot be zero\");\r\n        require(_l1Messenger != address(0), \"L1 messenger address cannot be zero\");\r\n        l1Source = _l1Source;\r\n        l1Messenger = IL1Messenger(_l1Messenger);\r\n    }\r\n\r\n    mapping(uint256 => mapping(address => uint256)) public contributions;\r\n    mapping(uint256 => bool) public fundRaiserStatus;\r\n\r\n    event ContributionMade(\r\n        uint256 indexed fundRaiserId,\r\n        address indexed contributor,\r\n        uint256 amount\r\n    );\r\n\r\n    event FundWithdrawal(\r\n        uint256 indexed fundRaiserId,\r\n        address indexed contributor,\r\n        uint256 amount\r\n    );\r\n\r\n    event FundRaiserStatusUpdated(uint256 indexed fundRaiserId, bool isActive);\r\n\r\n    function contribute(uint256 _fundRaiserId) public payable {\r\n        require(fundRaiserStatus[_fundRaiserId], \"Fundraiser is not active\");\r\n        require(msg.value > 0, \"Contribution must be greater than zero\");\r\n\r\n        contributions[_fundRaiserId][msg.sender] += msg.value;\r\n\r\n        emit ContributionMade(_fundRaiserId, msg.sender, msg.value);\r\n    }\r\n\r\n    function withdrawFund(uint256 _fundRaiserId, uint256 _amount) public {\r\n        require(fundRaiserStatus[_fundRaiserId], \"Fundraiser is not active\");\r\n        require(_amount > 0 && _amount <= contributions[_fundRaiserId][msg.sender], \"Invalid withdrawal amount\");\r\n\r\n        contributions[_fundRaiserId][msg.sender] -= _amount;\r\n        payable(msg.sender).transfer(_amount);\r\n\r\n        emit FundWithdrawal(_fundRaiserId, msg.sender, _amount);\r\n    }\r\n\r\n    function setFundRaiserStatus(uint256 _fundRaiserId, bool _isActive) external onlyOwner {\r\n        require(fundRaiserStatus[_fundRaiserId] != _isActive, \"Status is already set to the requested value\");\r\n        fundRaiserStatus[_fundRaiserId] = _isActive;\r\n        emit FundRaiserStatusUpdated(_fundRaiserId, _isActive);\r\n    }\r\n\r\n    function processL1Message(uint256 _fundRaiserId, bool _isActive) external {\r\n        require(msg.sender == l1Source, \"Only L1 source can call this\");\r\n        fundRaiserStatus[_fundRaiserId] = _isActive;\r\n        emit FundRaiserStatusUpdated(_fundRaiserId, _isActive);\r\n    }\r\n\r\n    function sendMessageToL1(uint256 _fundRaiserId, address _host, string memory _nameFund, string memory _reason, uint256 _goalAmount, uint256 _endTime, uint256 _raisedAmount, bool _isActive) external onlyOwner {\r\n        bytes memory message = abi.encode(_fundRaiserId, _host, _nameFund, _reason, _goalAmount, _endTime, _raisedAmount, _isActive);\r\n        l1Messenger.sendToL1(message);\r\n    }\r\n\r\n    function updateFundRaiserFromL1(uint256 _fundRaiserId, bool _isActive) external {\r\n        require(msg.sender == l1Source, \"Only L1 source can call this\");\r\n        fundRaiserStatus[_fundRaiserId] = _isActive;\r\n        emit FundRaiserStatusUpdated(_fundRaiserId, _isActive);\r\n    }\r\n}\r\n",
  "sourcePath": "D:\\Workspace\\Project\\zksync-project-specialize\\contracts\\L2\\FundCoreL2.sol",
  "compiler": {
    "name": "solc",
    "version": "0.8.19+commit.7dd6d404.Emscripten.clang"
  },
  "schemaVersion": "3.4.16",
  "updatedAt": "2024-09-09T08:46:46.316Z",
  "devdoc": {
    "kind": "dev",
    "methods": {
      "owner()": {
        "details": "Returns the address of the current owner."
      },
      "renounceOwnership()": {
        "details": "Leaves the contract without owner. It will not be possible to call `onlyOwner` functions anymore. Can only be called by the current owner. NOTE: Renouncing ownership will leave the contract without an owner, thereby removing any functionality that is only available to the owner."
      },
      "transferOwnership(address)": {
        "details": "Transfers ownership of the contract to a new account (`newOwner`). Can only be called by the current owner."
      }
    },
    "version": 1
  },
  "userdoc": {
    "kind": "user",
    "methods": {},
    "version": 1
  }
}