{
  "contractName": "FundBridgeL1",
  "abi": [
    {
      "inputs": [
        {
          "internalType": "address",
          "name": "_zkSync",
          "type": "address"
        },
        {
          "internalType": "address",
          "name": "_l2Target",
          "type": "address"
        }
      ],
      "stateMutability": "nonpayable",
      "type": "constructor"
    },
    {
      "inputs": [],
      "name": "l2Target",
      "outputs": [
        {
          "internalType": "address",
          "name": "",
          "type": "address"
        }
      ],
      "stateMutability": "view",
      "type": "function"
    },
    {
      "inputs": [],
      "name": "owner",
      "outputs": [
        {
          "internalType": "address",
          "name": "",
          "type": "address"
        }
      ],
      "stateMutability": "view",
      "type": "function"
    },
    {
      "inputs": [],
      "name": "zkSync",
      "outputs": [
        {
          "internalType": "contract IZkSync",
          "name": "",
          "type": "address"
        }
      ],
      "stateMutability": "view",
      "type": "function"
    },
    {
      "inputs": [
        {
          "internalType": "uint256",
          "name": "_fundRaiserId",
          "type": "uint256"
        },
        {
          "internalType": "bool",
          "name": "_isActive",
          "type": "bool"
        }
      ],
      "name": "syncFundRaiserStatus",
      "outputs": [],
      "stateMutability": "nonpayable",
      "type": "function"
    },
    {
      "inputs": [
        {
          "internalType": "address",
          "name": "_newL2Target",
          "type": "address"
        }
      ],
      "name": "updateL2Target",
      "outputs": [],
      "stateMutability": "nonpayable",
      "type": "function"
    }
  ],
  "bytecode": "0x608060405234801561001057600080fd5b506040516104c63803806104c683398101604081905261002f9161008c565b600080546001600160a01b039384166001600160a01b03199182161790915560018054929093169181169190911790915560028054909116331790556100bf565b80516001600160a01b038116811461008757600080fd5b919050565b6000806040838503121561009f57600080fd5b6100a883610070565b91506100b660208401610070565b90509250929050565b6103f8806100ce6000396000f3fe608060405234801561001057600080fd5b50600436106100575760003560e01c806318e953241461005c578063707c4a26146100715780637c19f005146100845780638da5cb5b146100b3578063c2b530d6146100c6575b600080fd5b61006f61006a366004610252565b6100d9565b005b61006f61007f366004610282565b610163565b600054610097906001600160a01b031681565b6040516001600160a01b03909116815260200160405180910390f35b600254610097906001600160a01b031681565b600154610097906001600160a01b031681565b6002546001600160a01b031633146101415760405162461bcd60e51b815260206004820152602160248201527f4f6e6c79206f776e65722063616e2063616c6c20746869732066756e6374696f6044820152603760f91b606482015260840160405180910390fd5b600180546001600160a01b0319166001600160a01b0392909216919091179055565b600082826040516020016101839291909182521515602082015260400190565b60408051808303601f190181526000805460015482865260208601909452919450620f424093610320936001600160a01b039384169363eb67241993911691879087908790846101e3565b60608152602001906001900390816101ce5790505b50336040518863ffffffff1660e01b815260040161020797969594939291906102fd565b6020604051808303816000875af1158015610226573d6000803e3d6000fd5b505050506040513d601f19601f8201168201806040525081019061024a91906103a9565b505050505050565b60006020828403121561026457600080fd5b81356001600160a01b038116811461027b57600080fd5b9392505050565b6000806040838503121561029557600080fd5b82359150602083013580151581146102ac57600080fd5b809150509250929050565b6000815180845260005b818110156102dd576020818501810151868301820152016102c1565b506000602082860101526020601f19601f83011685010191505092915050565b60018060a01b038816815260006020888184015260e0604084015261032560e08401896102b7565b87606085015286608085015283810360a08501528086518083528383019150838160051b84010184890160005b8381101561038057601f1986840301855261036e8383516102b7565b94870194925090860190600101610352565b50506001600160a01b03881660c0880152945061039d9350505050565b98975050505050505050565b6000602082840312156103bb57600080fd5b505191905056fea26469706673582212205dfc158ae3d33a228a424d258d63d139572def1cacb9b7764e574d19f365cde264736f6c63430008130033",
  "immutableReferences": {},
  "source": "// SPDX-License-Identifier: MIT\r\npragma solidity 0.8.19;\r\n\r\nimport \"@matterlabs/zksync-contracts/l1/contracts/zksync/interfaces/IZkSync.sol\";\r\n\r\ncontract FundBridgeL1 {\r\n    IZkSync public zkSync;\r\n    address public l2Target;\r\n    address public owner;\r\n\r\n    modifier onlyOwner() {\r\n        require(msg.sender == owner, \"Only owner can call this function\");\r\n        _;\r\n    }\r\n\r\n    constructor(address _zkSync, address _l2Target) {\r\n        zkSync = IZkSync(_zkSync);\r\n        l2Target = _l2Target;\r\n        owner = msg.sender;\r\n    }\r\n\r\n    function syncFundRaiserStatus(uint256 _fundRaiserId, bool _isActive) external {\r\n        // Ensure only authorized contracts or addresses can call this function\r\n        // Implement access control here\r\n\r\n        bytes memory message = abi.encode(_fundRaiserId, _isActive);\r\n        uint256 gasLimit = 1000000; // Adjust as needed\r\n        uint256 gasPerPubdataByteLimit = 800; // Adjust as needed\r\n\r\n        zkSync.requestL2Transaction(\r\n            l2Target,\r\n            0, // value\r\n            message,\r\n            gasLimit,\r\n            gasPerPubdataByteLimit,\r\n            new bytes[](0), // empty factory deps\r\n            msg.sender // refundRecipient\r\n        );\r\n    }\r\n\r\n    function updateL2Target(address _newL2Target) external onlyOwner {\r\n        l2Target = _newL2Target;\r\n    }\r\n}\r\n",
  "sourcePath": "D:\\Workspace\\Project\\zksync-project-specialize\\contracts\\L1\\FundBridgeL1.sol",
  "compiler": {
    "name": "solc",
    "version": "0.8.19+commit.7dd6d404.Emscripten.clang"
  },
  "schemaVersion": "3.4.16",
  "updatedAt": "2024-09-09T08:46:46.291Z",
  "devdoc": {
    "kind": "dev",
    "methods": {},
    "version": 1
  },
  "userdoc": {
    "kind": "user",
    "methods": {},
    "version": 1
  }
}