{
  "contractName": "FundBridgeL2",
  "abi": [
    {
      "inputs": [
        {
          "internalType": "address",
          "name": "_fundCoreL2",
          "type": "address"
        },
        {
          "internalType": "address",
          "name": "_l1Source",
          "type": "address"
        },
        {
          "internalType": "address",
          "name": "_l1Messenger",
          "type": "address"
        }
      ],
      "stateMutability": "nonpayable",
      "type": "constructor"
    },
    {
      "inputs": [],
      "name": "fundCoreL2",
      "outputs": [
        {
          "internalType": "contract FundCoreL2",
          "name": "",
          "type": "address"
        }
      ],
      "stateMutability": "view",
      "type": "function"
    },
    {
      "inputs": [],
      "name": "l1Messenger",
      "outputs": [
        {
          "internalType": "contract IL1Messenger",
          "name": "",
          "type": "address"
        }
      ],
      "stateMutability": "view",
      "type": "function"
    },
    {
      "inputs": [],
      "name": "l1Source",
      "outputs": [
        {
          "internalType": "address",
          "name": "",
          "type": "address"
        }
      ],
      "stateMutability": "view",
      "type": "function"
    },
    {
      "inputs": [
        {
          "internalType": "uint256",
          "name": "_fundRaiserId",
          "type": "uint256"
        },
        {
          "internalType": "address",
          "name": "_host",
          "type": "address"
        },
        {
          "internalType": "string",
          "name": "_nameFund",
          "type": "string"
        },
        {
          "internalType": "string",
          "name": "_reason",
          "type": "string"
        },
        {
          "internalType": "uint256",
          "name": "_goalAmount",
          "type": "uint256"
        },
        {
          "internalType": "uint256",
          "name": "_endTime",
          "type": "uint256"
        },
        {
          "internalType": "uint256",
          "name": "_raisedAmount",
          "type": "uint256"
        },
        {
          "internalType": "bool",
          "name": "_isActive",
          "type": "bool"
        }
      ],
      "name": "syncFundRaiserData",
      "outputs": [],
      "stateMutability": "nonpayable",
      "type": "function"
    },
    {
      "inputs": [
        {
          "internalType": "uint256",
          "name": "_fundRaiserId",
          "type": "uint256"
        },
        {
          "internalType": "bool",
          "name": "_isActive",
          "type": "bool"
        }
      ],
      "name": "processL1Message",
      "outputs": [],
      "stateMutability": "nonpayable",
      "type": "function"
    }
  ],
  "bytecode": "0x608060405234801561001057600080fd5b506040516106e43803806106e483398101604081905261002f9161008d565b600080546001600160a01b039485166001600160a01b0319918216179091556001805493851693821693909317909255600280549190931691161790556100d0565b80516001600160a01b038116811461008857600080fd5b919050565b6000806000606084860312156100a257600080fd5b6100ab84610071565b92506100b960208501610071565b91506100c760408501610071565b90509250925092565b610605806100df6000396000f3fe608060405234801561001057600080fd5b50600436106100575760003560e01c806310fbe3c31461005c57806343baa0ba1461008b5780635d5373521461009e5780636140e0e6146100b3578063d393fd5a146100c6575b600080fd5b60015461006f906001600160a01b031681565b6040516001600160a01b03909116815260200160405180910390f35b60005461006f906001600160a01b031681565b6100b16100ac366004610407565b6100d9565b005b60025461006f906001600160a01b031681565b6100b16100d43660046104c1565b6101e7565b6001546001600160a01b031633146101385760405162461bcd60e51b815260206004820152601c60248201527f4f6e6c79204c3120736f757263652063616e2063616c6c20746869730000000060448201526064015b60405180910390fd5b60008888888888888888604051602001610159989796959493929190610533565b60408051601f19818403018152908290526002546318be12c960e21b83529092506001600160a01b0316906362f84b249061019890849060040161059c565b6020604051808303816000875af11580156101b7573d6000803e3d6000fd5b505050506040513d601f19601f820116820180604052508101906101db91906105b6565b50505050505050505050565b6001546001600160a01b031633146102415760405162461bcd60e51b815260206004820152601c60248201527f4f6e6c79204c3120736f757263652063616e2063616c6c207468697300000000604482015260640161012f565b60005460405163143d265d60e21b81526004810184905282151560248201526001600160a01b03909116906350f4997490604401600060405180830381600087803b15801561028f57600080fd5b505af11580156102a3573d6000803e3d6000fd5b50505050600082826040516020016102c79291909182521515602082015260400190565b60408051601f19818403018152908290526002546318be12c960e21b83529092506001600160a01b0316906362f84b249061030690849060040161059c565b6020604051808303816000875af1158015610325573d6000803e3d6000fd5b505050506040513d601f19601f8201168201806040525081019061034991906105b6565b50505050565b634e487b7160e01b600052604160045260246000fd5b600082601f83011261037657600080fd5b813567ffffffffffffffff808211156103915761039161034f565b604051601f8301601f19908116603f011681019082821181831017156103b9576103b961034f565b816040528381528660208588010111156103d257600080fd5b836020870160208301376000602085830101528094505050505092915050565b8035801515811461040257600080fd5b919050565b600080600080600080600080610100898b03121561042457600080fd5b8835975060208901356001600160a01b038116811461044257600080fd5b9650604089013567ffffffffffffffff8082111561045f57600080fd5b61046b8c838d01610365565b975060608b013591508082111561048157600080fd5b5061048e8b828c01610365565b9550506080890135935060a0890135925060c089013591506104b260e08a016103f2565b90509295985092959890939650565b600080604083850312156104d457600080fd5b823591506104e4602084016103f2565b90509250929050565b6000815180845260005b81811015610513576020818501810151868301820152016104f7565b506000602082860101526020601f19601f83011685010191505092915050565b8881526001600160a01b03881660208201526101006040820181905260009061055e8382018a6104ed565b9050828103606084015261057281896104ed565b9150508560808301528460a08301528360c083015282151560e08301529998505050505050505050565b6020815260006105af60208301846104ed565b9392505050565b6000602082840312156105c857600080fd5b505191905056fea2646970667358221220cf02f45e517b3fd99ac12397529fa9cc1d498914a208904416d5a6275fdb42af64736f6c63430008130033",
  "immutableReferences": {},
  "source": "// SPDX-License-Identifier: MIT\r\npragma solidity 0.8.19;\r\n\r\nimport \"@matterlabs/zksync-contracts/l2/system-contracts/interfaces/IL1Messenger.sol\";\r\nimport \"./FundCoreL2.sol\";\r\n\r\ncontract FundBridgeL2 {\r\n    FundCoreL2 public fundCoreL2;\r\n    address public l1Source;\r\n    IL1Messenger public l1Messenger;\r\n\r\n    constructor(address _fundCoreL2, address _l1Source, address _l1Messenger) {\r\n        fundCoreL2 = FundCoreL2(_fundCoreL2);\r\n        l1Source = _l1Source;\r\n        l1Messenger = IL1Messenger(_l1Messenger);\r\n    }\r\n\r\n    function syncFundRaiserData(uint256 _fundRaiserId, address _host, string memory _nameFund, string memory _reason, uint256 _goalAmount, uint256 _endTime, uint256 _raisedAmount, bool _isActive) external {\r\n        require(msg.sender == l1Source, \"Only L1 source can call this\");\r\n\r\n        bytes memory message = abi.encode(_fundRaiserId, _host, _nameFund, _reason, _goalAmount, _endTime, _raisedAmount, _isActive);\r\n        l1Messenger.sendToL1(message);\r\n    }\r\n\r\n    function processL1Message(uint256 _fundRaiserId, bool _isActive) external {\r\n        require(msg.sender == l1Source, \"Only L1 source can call this\");\r\n        // Update local state\r\n        fundCoreL2.setFundRaiserStatus(_fundRaiserId, _isActive);\r\n        // Send message back to L1 if needed\r\n        bytes memory message = abi.encode(_fundRaiserId, _isActive);\r\n        l1Messenger.sendToL1(message);\r\n    }\r\n}\r\n",
  "sourcePath": "D:\\Workspace\\Project\\zksync-project-specialize\\contracts\\L2\\FundBridgeL2.sol",
  "compiler": {
    "name": "solc",
    "version": "0.8.19+commit.7dd6d404.Emscripten.clang"
  },
  "schemaVersion": "3.4.16",
  "updatedAt": "2024-09-09T08:46:46.309Z",
  "devdoc": {
    "kind": "dev",
    "methods": {},
    "version": 1
  },
  "userdoc": {
    "kind": "user",
    "methods": {},
    "version": 1
  }
}