{
  "contractName": "FundCoreL1",
  "abi": [
    {
      "inputs": [
        {
          "internalType": "address",
          "name": "_zkSync",
          "type": "address"
        },
        {
          "internalType": "address",
          "name": "_l2Target",
          "type": "address"
        }
      ],
      "stateMutability": "nonpayable",
      "type": "constructor"
    },
    {
      "anonymous": false,
      "inputs": [
        {
          "indexed": true,
          "internalType": "uint256",
          "name": "fundRaiserId",
          "type": "uint256"
        },
        {
          "indexed": true,
          "internalType": "address",
          "name": "host",
          "type": "address"
        },
        {
          "indexed": false,
          "internalType": "string",
          "name": "nameFund",
          "type": "string"
        },
        {
          "indexed": false,
          "internalType": "string",
          "name": "reason",
          "type": "string"
        },
        {
          "indexed": false,
          "internalType": "uint256",
          "name": "goalAmount",
          "type": "uint256"
        },
        {
          "indexed": false,
          "internalType": "uint256",
          "name": "endTime",
          "type": "uint256"
        }
      ],
      "name": "FundRaiserCreated",
      "type": "event"
    },
    {
      "anonymous": false,
      "inputs": [
        {
          "indexed": false,
          "internalType": "uint256",
          "name": "oldAmount",
          "type": "uint256"
        },
        {
          "indexed": false,
          "internalType": "uint256",
          "name": "newAmount",
          "type": "uint256"
        }
      ],
      "name": "MinMoneySignUpChanged",
      "type": "event"
    },
    {
      "anonymous": false,
      "inputs": [
        {
          "indexed": true,
          "internalType": "address",
          "name": "previousOwner",
          "type": "address"
        },
        {
          "indexed": true,
          "internalType": "address",
          "name": "newOwner",
          "type": "address"
        }
      ],
      "name": "OwnershipTransferred",
      "type": "event"
    },
    {
      "inputs": [],
      "name": "firstId",
      "outputs": [
        {
          "internalType": "uint256",
          "name": "",
          "type": "uint256"
        }
      ],
      "stateMutability": "view",
      "type": "function"
    },
    {
      "inputs": [
        {
          "internalType": "uint256",
          "name": "",
          "type": "uint256"
        }
      ],
      "name": "fundRaiserIds",
      "outputs": [
        {
          "internalType": "uint256",
          "name": "",
          "type": "uint256"
        }
      ],
      "stateMutability": "view",
      "type": "function"
    },
    {
      "inputs": [
        {
          "internalType": "uint256",
          "name": "",
          "type": "uint256"
        }
      ],
      "name": "fundRaisers",
      "outputs": [
        {
          "internalType": "address",
          "name": "host",
          "type": "address"
        },
        {
          "internalType": "string",
          "name": "nameFund",
          "type": "string"
        },
        {
          "internalType": "string",
          "name": "reason",
          "type": "string"
        },
        {
          "internalType": "uint256",
          "name": "goalAmount",
          "type": "uint256"
        },
        {
          "internalType": "uint256",
          "name": "endTime",
          "type": "uint256"
        },
        {
          "internalType": "uint256",
          "name": "raisedAmount",
          "type": "uint256"
        },
        {
          "internalType": "bool",
          "name": "isActive",
          "type": "bool"
        }
      ],
      "stateMutability": "view",
      "type": "function"
    },
    {
      "inputs": [],
      "name": "l2Target",
      "outputs": [
        {
          "internalType": "address",
          "name": "",
          "type": "address"
        }
      ],
      "stateMutability": "view",
      "type": "function"
    },
    {
      "inputs": [
        {
          "internalType": "uint256",
          "name": "",
          "type": "uint256"
        }
      ],
      "name": "listMember",
      "outputs": [
        {
          "internalType": "address",
          "name": "",
          "type": "address"
        }
      ],
      "stateMutability": "view",
      "type": "function"
    },
    {
      "inputs": [
        {
          "internalType": "address",
          "name": "",
          "type": "address"
        }
      ],
      "name": "members",
      "outputs": [
        {
          "internalType": "uint256",
          "name": "id",
          "type": "uint256"
        },
        {
          "internalType": "uint256",
          "name": "age",
          "type": "uint256"
        },
        {
          "internalType": "string",
          "name": "name",
          "type": "string"
        },
        {
          "internalType": "uint256",
          "name": "hosted",
          "type": "uint256"
        }
      ],
      "stateMutability": "view",
      "type": "function"
    },
    {
      "inputs": [],
      "name": "minMoneySignUp",
      "outputs": [
        {
          "internalType": "uint256",
          "name": "",
          "type": "uint256"
        }
      ],
      "stateMutability": "view",
      "type": "function"
    },
    {
      "inputs": [],
      "name": "owner",
      "outputs": [
        {
          "internalType": "address",
          "name": "",
          "type": "address"
        }
      ],
      "stateMutability": "view",
      "type": "function"
    },
    {
      "inputs": [],
      "name": "renounceOwnership",
      "outputs": [],
      "stateMutability": "nonpayable",
      "type": "function"
    },
    {
      "inputs": [
        {
          "internalType": "address",
          "name": "newOwner",
          "type": "address"
        }
      ],
      "name": "transferOwnership",
      "outputs": [],
      "stateMutability": "nonpayable",
      "type": "function"
    },
    {
      "inputs": [],
      "name": "zkSync",
      "outputs": [
        {
          "internalType": "contract IZkSync",
          "name": "",
          "type": "address"
        }
      ],
      "stateMutability": "view",
      "type": "function"
    },
    {
      "inputs": [
        {
          "internalType": "uint256",
          "name": "_age",
          "type": "uint256"
        },
        {
          "internalType": "string",
          "name": "_name",
          "type": "string"
        }
      ],
      "name": "signUp",
      "outputs": [],
      "stateMutability": "payable",
      "type": "function"
    },
    {
      "inputs": [
        {
          "internalType": "string",
          "name": "_nameFund",
          "type": "string"
        },
        {
          "internalType": "string",
          "name": "_reason",
          "type": "string"
        },
        {
          "internalType": "uint256",
          "name": "_goalAmount",
          "type": "uint256"
        },
        {
          "internalType": "uint256",
          "name": "_durationInMinutes",
          "type": "uint256"
        }
      ],
      "name": "hostFund",
      "outputs": [],
      "stateMutability": "nonpayable",
      "type": "function"
    },
    {
      "inputs": [
        {
          "internalType": "uint256",
          "name": "_newAmount",
          "type": "uint256"
        }
      ],
      "name": "changeProportionMemberSignUp",
      "outputs": [],
      "stateMutability": "nonpayable",
      "type": "function"
    },
    {
      "inputs": [
        {
          "internalType": "uint256",
          "name": "_fundRaiserId",
          "type": "uint256"
        }
      ],
      "name": "getFundRaiser",
      "outputs": [
        {
          "components": [
            {
              "internalType": "address",
              "name": "host",
              "type": "address"
            },
            {
              "internalType": "string",
              "name": "nameFund",
              "type": "string"
            },
            {
              "internalType": "string",
              "name": "reason",
              "type": "string"
            },
            {
              "internalType": "uint256",
              "name": "goalAmount",
              "type": "uint256"
            },
            {
              "internalType": "uint256",
              "name": "endTime",
              "type": "uint256"
            },
            {
              "internalType": "uint256",
              "name": "raisedAmount",
              "type": "uint256"
            },
            {
              "internalType": "bool",
              "name": "isActive",
              "type": "bool"
            }
          ],
          "internalType": "struct FundCoreL1.FundRaiser",
          "name": "",
          "type": "tuple"
        }
      ],
      "stateMutability": "view",
      "type": "function"
    },
    {
      "inputs": [
        {
          "internalType": "address",
          "name": "memberAddress",
          "type": "address"
        }
      ],
      "name": "getMember",
      "outputs": [
        {
          "components": [
            {
              "internalType": "uint256",
              "name": "id",
              "type": "uint256"
            },
            {
              "internalType": "uint256",
              "name": "age",
              "type": "uint256"
            },
            {
              "internalType": "string",
              "name": "name",
              "type": "string"
            },
            {
              "internalType": "uint256",
              "name": "hosted",
              "type": "uint256"
            }
          ],
          "internalType": "struct FundCoreL1.Member",
          "name": "",
          "type": "tuple"
        }
      ],
      "stateMutability": "view",
      "type": "function"
    },
    {
      "inputs": [
        {
          "internalType": "uint256",
          "name": "_fundRaiserId",
          "type": "uint256"
        },
        {
          "internalType": "address",
          "name": "_host",
          "type": "address"
        },
        {
          "internalType": "string",
          "name": "_nameFund",
          "type": "string"
        },
        {
          "internalType": "string",
          "name": "_reason",
          "type": "string"
        },
        {
          "internalType": "uint256",
          "name": "_goalAmount",
          "type": "uint256"
        },
        {
          "internalType": "uint256",
          "name": "_endTime",
          "type": "uint256"
        },
        {
          "internalType": "uint256",
          "name": "_raisedAmount",
          "type": "uint256"
        },
        {
          "internalType": "bool",
          "name": "_isActive",
          "type": "bool"
        }
      ],
      "name": "updateFundRaiser",
      "outputs": [],
      "stateMutability": "nonpayable",
      "type": "function"
    },
    {
      "inputs": [
        {
          "internalType": "uint256",
          "name": "_fundRaiserId",
          "type": "uint256"
        },
        {
          "internalType": "bool",
          "name": "_isActive",
          "type": "bool"
        }
      ],
      "name": "sendMessageToL2",
      "outputs": [],
      "stateMutability": "nonpayable",
      "type": "function"
    },
    {
      "inputs": [
        {
          "internalType": "address",
          "name": "_newL2Target",
          "type": "address"
        }
      ],
      "name": "updateL2Target",
      "outputs": [],
      "stateMutability": "nonpayable",
      "type": "function"
    }
  ],
  "bytecode": "0x60806040523480156200001157600080fd5b506040516200199b3803806200199b8339810160408190526200003491620000e9565b6200003f336200007c565b600180546001600160a01b039384166001600160a01b03199182161782556002805493909416921691909117909155600381905560045562000121565b600080546001600160a01b038381166001600160a01b0319831681178455604051919092169283917f8be0079c531659141344cd1fd0a4f28419497f9722a3daafe3b4186f6b6457e09190a35050565b80516001600160a01b0381168114620000e457600080fd5b919050565b60008060408385031215620000fd57600080fd5b6200010883620000cc565b91506200011860208401620000cc565b90509250929050565b61186a80620001316000396000f3fe6080604052600436106101145760003560e01c80637d00e03d116100a0578063f074a05311610064578063f074a05314610316578063f2fde38b14610336578063f71c9d0414610356578063fa1c78c114610376578063feea8ea8146103a357600080fd5b80637d00e03d146102785780638328d964146102985780638da5cb5b146102b8578063c2b530d6146102d6578063c6fc7a9e146102f657600080fd5b8063401576a2116100e7578063401576a2146101b457806370eec57c146101d8578063715018a61461020b578063781da539146102205780637c19f0051461024057600080fd5b806308ae4b0c1461011957806318e95324146101525780632ada2596146101745780632bf4ec85146101a1575b600080fd5b34801561012557600080fd5b5061013961013436600461113a565b6103b9565b60405161014994939291906111a2565b60405180910390f35b34801561015e57600080fd5b5061017261016d36600461113a565b61046a565b005b34801561018057600080fd5b5061019461018f36600461113a565b6104bf565b60405161014991906111d2565b6101726101af3660046112bb565b6105d1565b3480156101c057600080fd5b506101ca60045481565b604051908152602001610149565b3480156101e457600080fd5b506101f86101f3366004611302565b6106da565b604051610149979695949392919061131b565b34801561021757600080fd5b50610172610833565b34801561022c57600080fd5b5061017261023b36600461138a565b610869565b34801561024c57600080fd5b50600154610260906001600160a01b031681565b6040516001600160a01b039091168152602001610149565b34801561028457600080fd5b50610172610293366004611302565b610964565b3480156102a457600080fd5b506101726102b3366004611436565b6109d3565b3480156102c457600080fd5b506000546001600160a01b0316610260565b3480156102e257600080fd5b50600254610260906001600160a01b031681565b34801561030257600080fd5b506101ca610311366004611302565b610ae9565b34801561032257600080fd5b50610260610331366004611302565b610b0a565b34801561034257600080fd5b5061017261035136600461113a565b610b34565b34801561036257600080fd5b50610172610371366004611462565b610bcf565b34801561038257600080fd5b50610396610391366004611302565b610eff565b60405161014991906114d6565b3480156103af57600080fd5b506101ca60035481565b600660205260009081526040902080546001820154600283018054929391926103e190611559565b80601f016020809104026020016040519081016040528092919081815260200182805461040d90611559565b801561045a5780601f1061042f5761010080835404028352916020019161045a565b820191906000526020600020905b81548152906001019060200180831161043d57829003601f168201915b5050505050908060030154905084565b6000546001600160a01b0316331461049d5760405162461bcd60e51b815260040161049490611593565b60405180910390fd5b600280546001600160a01b0319166001600160a01b0392909216919091179055565b6104ea6040518060800160405280600081526020016000815260200160608152602001600081525090565b60066000836001600160a01b03166001600160a01b03168152602001908152602001600020604051806080016040529081600082015481526020016001820154815260200160028201805461053e90611559565b80601f016020809104026020016040519081016040528092919081815260200182805461056a90611559565b80156105b75780601f1061058c576101008083540402835291602001916105b7565b820191906000526020600020905b81548152906001019060200180831161059a57829003601f168201915b505050505081526020016003820154815250509050919050565b6003543410156106235760405162461bcd60e51b815260206004820152601f60248201527f496e73756666696369656e742066756e647320666f72207369676e20757021006044820152606401610494565b60408051608081018252600454815260208082018581528284018581526000606085018190523381526006909352939091208251815590516001820155915190919060028201906106749082611617565b50606091909101516003909101556005805460018101825560009182527f036b6384b5eca791c62761152d0c79bb0604c104a5fb6f4eb0703f3154bb3db00180546001600160a01b0319163317905560048054916106d1836116ed565b91905055505050565b600760205260009081526040902080546001820180546001600160a01b03909216929161070690611559565b80601f016020809104026020016040519081016040528092919081815260200182805461073290611559565b801561077f5780601f106107545761010080835404028352916020019161077f565b820191906000526020600020905b81548152906001019060200180831161076257829003601f168201915b50505050509080600201805461079490611559565b80601f01602080910402602001604051908101604052809291908181526020018280546107c090611559565b801561080d5780601f106107e25761010080835404028352916020019161080d565b820191906000526020600020905b8154815290600101906020018083116107f057829003601f168201915b505050506003830154600484015460058501546006909501549394919390925060ff1687565b6000546001600160a01b0316331461085d5760405162461bcd60e51b815260040161049490611593565b61086760006110ce565b565b6000546001600160a01b031633146108935760405162461bcd60e51b815260040161049490611593565b6040805160e0810182526001600160a01b03898116825260208083018a81528385018a9052606084018990526080840188905260a0840187905285151560c085015260008d81526007909252939020825181546001600160a01b03191692169190911781559151909190600182019061090c9082611617565b50604082015160028201906109219082611617565b50606082015160038201556080820151600482015560a0820151600582015560c0909101516006909101805460ff19169115159190911790555050505050505050565b6000546001600160a01b0316331461098e5760405162461bcd60e51b815260040161049490611593565b600380549082905560408051828152602081018490527ff3e86af76f11fb6a2ddc5260684d6017678809e59b3174686acd0852e5207152910160405180910390a15050565b6000546001600160a01b031633146109fd5760405162461bcd60e51b815260040161049490611593565b60008282604051602001610a1d9291909182521515602082015260400190565b60408051808303601f190181526001546002546000808652602086019094529194506001600160a01b039081169363eb6724199391909216918590620f4240906103209084610a7c565b6060815260200190600190039081610a675790505b50336040518863ffffffff1660e01b8152600401610aa09796959493929190611706565b6020604051808303816000875af1158015610abf573d6000803e3d6000fd5b505050506040513d601f19601f82011682018060405250810190610ae391906117b2565b50505050565b60088181548110610af957600080fd5b600091825260209091200154905081565b60058181548110610b1a57600080fd5b6000918252602090912001546001600160a01b0316905081565b6000546001600160a01b03163314610b5e5760405162461bcd60e51b815260040161049490611593565b6001600160a01b038116610bc35760405162461bcd60e51b815260206004820152602660248201527f4f776e61626c653a206e6577206f776e657220697320746865207a65726f206160448201526564647265737360d01b6064820152608401610494565b610bcc816110ce565b50565b336000908152600660205260408120549003610c455760405162461bcd60e51b815260206004820152602f60248201527f596f75206d75737420626520612072656769737465726564206d656d6265722060448201526e746f20686f737420612066756e642160881b6064820152608401610494565b3360009081526006602052604090206003908101541115610cbe5760405162461bcd60e51b815260206004820152602d60248201527f596f75206861766520657863656564656420746865206d6178696d756d206e7560448201526c6d626572206f6620686f73747360981b6064820152608401610494565b60008211610d1c5760405162461bcd60e51b815260206004820152602560248201527f476f616c20616d6f756e74206d7573742062652067726561746572207468616e604482015264207a65726f60d81b6064820152608401610494565b60008111610d775760405162461bcd60e51b815260206004820152602260248201527f4475726174696f6e206d7573742062652067726561746572207468616e207a65604482015261726f60f01b6064820152608401610494565b6008546000610d8783603c6117cb565b610d9190426117e8565b6040805160e08101825233815260208082018a81528284018a90526060830189905260808301859052600060a08401819052600160c08501819052888252600790935293909320825181546001600160a01b0319166001600160a01b039091161781559251939450909290820190610e099082611617565b5060408201516002820190610e1e9082611617565b5060608201516003828101919091556080830151600483015560a0830151600583015560c0909201516006918201805460ff191691151591909117905560088054600181019091557ff3f7a9fe364faab93b216da50a3214154f22a0a2b415b23a84c8169e8b636ee30184905533600090815260209190915260408120909101805491610eaa836116ed565b9190505550336001600160a01b0316827fbf05d2161d589289e2ebd702c64fc54ab17d2721d6d1af5c98d02bfe2bf6af3988888886604051610eef94939291906117fb565b60405180910390a3505050505050565b610f4a6040518060e0016040528060006001600160a01b0316815260200160608152602001606081526020016000815260200160008152602001600081526020016000151581525090565b600082815260076020908152604091829020825160e0810190935280546001600160a01b031683526001810180549192840191610f8690611559565b80601f0160208091040260200160405190810160405280929190818152602001828054610fb290611559565b8015610fff5780601f10610fd457610100808354040283529160200191610fff565b820191906000526020600020905b815481529060010190602001808311610fe257829003601f168201915b5050505050815260200160028201805461101890611559565b80601f016020809104026020016040519081016040528092919081815260200182805461104490611559565b80156110915780601f1061106657610100808354040283529160200191611091565b820191906000526020600020905b81548152906001019060200180831161107457829003601f168201915b505050918352505060038201546020820152600482015460408201526005820154606082015260069091015460ff16151560809091015292915050565b600080546001600160a01b038381166001600160a01b0319831681178455604051919092169283917f8be0079c531659141344cd1fd0a4f28419497f9722a3daafe3b4186f6b6457e09190a35050565b80356001600160a01b038116811461113557600080fd5b919050565b60006020828403121561114c57600080fd5b6111558261111e565b9392505050565b6000815180845260005b8181101561118257602081850181015186830182015201611166565b506000602082860101526020601f19601f83011685010191505092915050565b8481528360208201526080604082015260006111c1608083018561115c565b905082606083015295945050505050565b602081528151602082015260208201516040820152600060408301516080606084015261120260a084018261115c565b9050606084015160808401528091505092915050565b634e487b7160e01b600052604160045260246000fd5b600082601f83011261123f57600080fd5b813567ffffffffffffffff8082111561125a5761125a611218565b604051601f8301601f19908116603f0116810190828211818310171561128257611282611218565b8160405283815286602085880101111561129b57600080fd5b836020870160208301376000602085830101528094505050505092915050565b600080604083850312156112ce57600080fd5b82359150602083013567ffffffffffffffff8111156112ec57600080fd5b6112f88582860161122e565b9150509250929050565b60006020828403121561131457600080fd5b5035919050565b6001600160a01b038816815260e06020820181905260009061133f9083018961115c565b8281036040840152611351818961115c565b9150508560608301528460808301528360a083015282151560c083015298975050505050505050565b8035801515811461113557600080fd5b600080600080600080600080610100898b0312156113a757600080fd5b883597506113b760208a0161111e565b9650604089013567ffffffffffffffff808211156113d457600080fd5b6113e08c838d0161122e565b975060608b01359150808211156113f657600080fd5b506114038b828c0161122e565b9550506080890135935060a0890135925060c0890135915061142760e08a0161137a565b90509295985092959890939650565b6000806040838503121561144957600080fd5b823591506114596020840161137a565b90509250929050565b6000806000806080858703121561147857600080fd5b843567ffffffffffffffff8082111561149057600080fd5b61149c8883890161122e565b955060208701359150808211156114b257600080fd5b506114bf8782880161122e565b949794965050505060408301359260600135919050565b602080825282516001600160a01b03168282015282015160e0604083015260009061150561010084018261115c565b90506040840151601f19848303016060850152611522828261115c565b91505060608401516080840152608084015160a084015260a084015160c084015260c0840151151560e08401528091505092915050565b600181811c9082168061156d57607f821691505b60208210810361158d57634e487b7160e01b600052602260045260246000fd5b50919050565b6020808252818101527f4f776e61626c653a2063616c6c6572206973206e6f7420746865206f776e6572604082015260600190565b601f82111561161257600081815260208120601f850160051c810160208610156115ef5750805b601f850160051c820191505b8181101561160e578281556001016115fb565b5050505b505050565b815167ffffffffffffffff81111561163157611631611218565b6116458161163f8454611559565b846115c8565b602080601f83116001811461167a57600084156116625750858301515b600019600386901b1c1916600185901b17855561160e565b600085815260208120601f198616915b828110156116a95788860151825594840194600190910190840161168a565b50858210156116c75787850151600019600388901b60f8161c191681555b5050505050600190811b01905550565b634e487b7160e01b600052601160045260246000fd5b6000600182016116ff576116ff6116d7565b5060010190565b60018060a01b038816815260006020888184015260e0604084015261172e60e084018961115c565b87606085015286608085015283810360a08501528086518083528383019150838160051b84010184890160005b8381101561178957601f1986840301855261177783835161115c565b9487019492509086019060010161175b565b50506001600160a01b03881660c088015294506117a69350505050565b98975050505050505050565b6000602082840312156117c457600080fd5b5051919050565b80820281158282048414176117e2576117e26116d7565b92915050565b808201808211156117e2576117e26116d7565b60808152600061180e608083018761115c565b8281036020840152611820818761115c565b60408401959095525050606001529291505056fea2646970667358221220fdcbf049c4f61a925c7b6a57d3908f783e995d8025ef2ab847328823c0ac7e8b64736f6c63430008130033",
  "immutableReferences": {},
  "source": "// SPDX-License-Identifier: MIT\r\npragma solidity ^0.8.0;\r\n\r\nimport {Ownable} from \"@openzeppelin/contracts/access/Ownable.sol\";\r\nimport \"@matterlabs/zksync-contracts/l1/contracts/zksync/interfaces/IZkSync.sol\";\r\n\r\ncontract FundCoreL1 is Ownable {\r\n    IZkSync public zkSync;\r\n    address public l2Target;\r\n\r\n    uint256 public minMoneySignUp;\r\n    uint256 public firstId;\r\n    address[] public listMember;\r\n\r\n    struct Member {\r\n        uint256 id;\r\n        uint256 age;\r\n        string name;\r\n        uint256 hosted;  \r\n    }\r\n    struct FundRaiser {\r\n        address host;\r\n        string nameFund;\r\n        string reason;\r\n        uint256 goalAmount;\r\n        uint256 endTime;\r\n        uint256 raisedAmount;\r\n        bool isActive;\r\n    }\r\n\r\n    mapping(address => Member) public members;\r\n    mapping(uint256 => FundRaiser) public fundRaisers;\r\n    uint256[] public fundRaiserIds;\r\n\r\n    event FundRaiserCreated(\r\n        uint256 indexed fundRaiserId,\r\n        address indexed host,\r\n        string nameFund,\r\n        string reason,\r\n        uint256 goalAmount,\r\n        uint256 endTime\r\n    );\r\n\r\n    event MinMoneySignUpChanged(\r\n        uint256 oldAmount,\r\n        uint256 newAmount\r\n    );\r\n\r\n    constructor(address _zkSync, address _l2Target) {\r\n        zkSync = IZkSync(_zkSync);\r\n        l2Target = _l2Target;\r\n        minMoneySignUp = 1;\r\n        firstId = 1;\r\n    }\r\n\r\n    function signUp(uint256 _age, string memory _name) public payable {\r\n        require(msg.value >= minMoneySignUp, \"Insufficient funds for sign up!\");\r\n        members[msg.sender] = Member(firstId, _age, _name, 0);\r\n        listMember.push(msg.sender);\r\n        firstId++;\r\n    }\r\n\r\n    function hostFund(string memory _nameFund, string memory _reason, uint256 _goalAmount, uint256 _durationInMinutes) public {\r\n        require(members[msg.sender].id != 0, \"You must be a registered member to host a fund!\");\r\n        require(members[msg.sender].hosted <= 3, \"You have exceeded the maximum number of hosts\");\r\n        require(_goalAmount > 0, \"Goal amount must be greater than zero\");\r\n        require(_durationInMinutes > 0, \"Duration must be greater than zero\");\r\n\r\n        uint256 fundRaiserId = fundRaiserIds.length;\r\n        uint256 endTime = block.timestamp + (_durationInMinutes * 1 minutes);\r\n\r\n        fundRaisers[fundRaiserId] = FundRaiser({\r\n            host: msg.sender,\r\n            nameFund: _nameFund,\r\n            reason: _reason,\r\n            goalAmount: _goalAmount,\r\n            endTime: endTime,\r\n            raisedAmount: 0,\r\n            isActive: true\r\n        });\r\n\r\n        fundRaiserIds.push(fundRaiserId);\r\n        members[msg.sender].hosted++;\r\n\r\n        emit FundRaiserCreated(fundRaiserId, msg.sender, _nameFund, _reason, _goalAmount, endTime);\r\n    }\r\n\r\n    function changeProportionMemberSignUp(uint256 _newAmount) public onlyOwner {\r\n        uint256 oldAmount = minMoneySignUp;\r\n        minMoneySignUp = _newAmount;\r\n        emit MinMoneySignUpChanged(oldAmount, _newAmount);\r\n    }\r\n\r\n    function getFundRaiser(uint256 _fundRaiserId) public view returns (FundRaiser memory) {\r\n        return fundRaisers[_fundRaiserId];\r\n    }\r\n\r\n    function getMember(address memberAddress) public view returns (Member memory) {\r\n        return members[memberAddress];\r\n    }\r\n\r\n    function updateFundRaiser(uint256 _fundRaiserId, address _host, string memory _nameFund, string memory _reason, uint256 _goalAmount, uint256 _endTime, uint256 _raisedAmount, bool _isActive) external onlyOwner {\r\n        fundRaisers[_fundRaiserId] = FundRaiser({\r\n            host: _host,\r\n            nameFund: _nameFund,\r\n            reason: _reason,\r\n            goalAmount: _goalAmount,\r\n            endTime: _endTime,\r\n            raisedAmount: _raisedAmount,\r\n            isActive: _isActive\r\n        });\r\n    }\r\n\r\n    function sendMessageToL2(uint256 _fundRaiserId, bool _isActive) external onlyOwner {\r\n        bytes memory message = abi.encode(_fundRaiserId, _isActive);\r\n        zkSync.requestL2Transaction(l2Target, 0, message, 1000000, 800, new bytes[](0), msg.sender);\r\n    }\r\n\r\n    function updateL2Target(address _newL2Target) external onlyOwner {\r\n        l2Target = _newL2Target;\r\n    }\r\n}\r\n",
  "sourcePath": "D:\\Workspace\\Project\\zksync-project-specialize\\contracts\\L1\\FundCoreL1.sol",
  "compiler": {
    "name": "solc",
    "version": "0.8.19+commit.7dd6d404.Emscripten.clang"
  },
  "schemaVersion": "3.4.16",
  "updatedAt": "2024-09-09T08:46:46.300Z",
  "devdoc": {
    "kind": "dev",
    "methods": {
      "owner()": {
        "details": "Returns the address of the current owner."
      },
      "renounceOwnership()": {
        "details": "Leaves the contract without owner. It will not be possible to call `onlyOwner` functions anymore. Can only be called by the current owner. NOTE: Renouncing ownership will leave the contract without an owner, thereby removing any functionality that is only available to the owner."
      },
      "transferOwnership(address)": {
        "details": "Transfers ownership of the contract to a new account (`newOwner`). Can only be called by the current owner."
      }
    },
    "version": 1
  },
  "userdoc": {
    "kind": "user",
    "methods": {},
    "version": 1
  }
}